{
  "_format": "hh-sol-artifact-1",
  "contractName": "Counter",
  "sourceName": "contracts/gelato/Counter.sol",
  "abi": [
    {
      "inputs": [
        {
          "internalType": "address payable",
          "name": "_pokeMe",
          "type": "address"
        }
      ],
      "stateMutability": "nonpayable",
      "type": "constructor"
    },
    {
      "inputs": [],
      "name": "count",
      "outputs": [
        {
          "internalType": "uint256",
          "name": "",
          "type": "uint256"
        }
      ],
      "stateMutability": "view",
      "type": "function"
    },
    {
      "inputs": [
        {
          "internalType": "uint256",
          "name": "amount",
          "type": "uint256"
        }
      ],
      "name": "increaseCount",
      "outputs": [],
      "stateMutability": "nonpayable",
      "type": "function"
    },
    {
      "inputs": [],
      "name": "lastExecuted",
      "outputs": [
        {
          "internalType": "uint256",
          "name": "",
          "type": "uint256"
        }
      ],
      "stateMutability": "view",
      "type": "function"
    },
    {
      "inputs": [],
      "name": "pokeMe",
      "outputs": [
        {
          "internalType": "address payable",
          "name": "",
          "type": "address"
        }
      ],
      "stateMutability": "view",
      "type": "function"
    }
  ],
  "bytecode": "0x60a060405234801561001057600080fd5b5060405161033138038061033183398101604081905261002f91610044565b60601b6001600160601b031916608052610072565b600060208284031215610055578081fd5b81516001600160a01b038116811461006b578182fd5b9392505050565b60805160601c61029b6100966000396000818160b8015261014a015261029b6000f3fe608060405234801561001057600080fd5b506004361061004c5760003560e01c806306661abd146100515780631c15ff771461006f57806346d4adf214610077578063c84eee0d1461008c575b600080fd5b6100596100a1565b6040516100669190610217565b60405180910390f35b6100596100a7565b61008a61008536600461016c565b6100ad565b005b610094610148565b6040516100669190610184565b60005481565b60015481565b336001600160a01b037f000000000000000000000000000000000000000000000000000000000000000016146100fe5760405162461bcd60e51b81526004016100f590610198565b60405180910390fd5b60b46001544261010e9190610238565b1161012b5760405162461bcd60e51b81526004016100f5906101cf565b8060008082825461013c9190610220565b90915550504260015550565b7f000000000000000000000000000000000000000000000000000000000000000081565b60006020828403121561017d578081fd5b5035919050565b6001600160a01b0391909116815260200190565b60208082526017908201527f506f6b654d6552656164793a206f6e6c79506f6b654d65000000000000000000604082015260600190565b60208082526028908201527f436f756e7465723a20696e637265617365436f756e743a2054696d65206e6f7460408201526708195b185c1cd95960c21b606082015260800190565b90815260200190565b600082198211156102335761023361024f565b500190565b60008282101561024a5761024a61024f565b500390565b634e487b7160e01b600052601160045260246000fdfea264697066735822122076854b487cee2b6c2410ad1b6e7bac0d9697a22146703244d1430a164a05c12664736f6c63430008000033",
  "linkReferences": {},
  "deployedLinkReferences": {}
}