{
  "_format": "hh-sol-artifact-1",
  "contractName": "CreamLoanSaver",
  "sourceName": "contracts/CreamLoanSaver.sol",
  "abi": [
    {
      "inputs": [
        {
          "internalType": "address payable",
          "name": "_pokeMe",
          "type": "address"
        },
        {
          "internalType": "address",
          "name": "_cusdcAddress",
          "type": "address"
        },
        {
          "internalType": "address",
          "name": "_gelato",
          "type": "address"
        },
        {
          "internalType": "contract IComptroller",
          "name": "_comptroller",
          "type": "address"
        },
        {
          "internalType": "contract IUniswapV2Router02",
          "name": "_uniswapRouter",
          "type": "address"
        },
        {
          "internalType": "contract IPriceOracle",
          "name": "_oracle",
          "type": "address"
        }
      ],
      "stateMutability": "nonpayable",
      "type": "constructor"
    },
    {
      "inputs": [],
      "name": "CUSDC_ADDRESS",
      "outputs": [
        {
          "internalType": "address",
          "name": "",
          "type": "address"
        }
      ],
      "stateMutability": "view",
      "type": "function"
    },
    {
      "inputs": [],
      "name": "EXP_SCALE",
      "outputs": [
        {
          "internalType": "uint256",
          "name": "",
          "type": "uint256"
        }
      ],
      "stateMutability": "view",
      "type": "function"
    },
    {
      "inputs": [],
      "name": "GELATO",
      "outputs": [
        {
          "internalType": "address",
          "name": "",
          "type": "address"
        }
      ],
      "stateMutability": "view",
      "type": "function"
    },
    {
      "inputs": [],
      "name": "comptroller",
      "outputs": [
        {
          "internalType": "contract IComptroller",
          "name": "",
          "type": "address"
        }
      ],
      "stateMutability": "view",
      "type": "function"
    },
    {
      "inputs": [
        {
          "internalType": "address",
          "name": "sender",
          "type": "address"
        },
        {
          "internalType": "address",
          "name": "",
          "type": "address"
        },
        {
          "internalType": "uint256",
          "name": "",
          "type": "uint256"
        },
        {
          "internalType": "uint256",
          "name": "premiums",
          "type": "uint256"
        },
        {
          "internalType": "bytes",
          "name": "params",
          "type": "bytes"
        }
      ],
      "name": "executeOperation",
      "outputs": [],
      "stateMutability": "nonpayable",
      "type": "function"
    },
    {
      "inputs": [],
      "name": "flashFeeBps",
      "outputs": [
        {
          "internalType": "uint256",
          "name": "",
          "type": "uint256"
        }
      ],
      "stateMutability": "view",
      "type": "function"
    },
    {
      "inputs": [
        {
          "internalType": "address",
          "name": "account",
          "type": "address"
        }
      ],
      "name": "getUserAccountData",
      "outputs": [
        {
          "internalType": "uint256",
          "name": "totalCollateralInEth",
          "type": "uint256"
        },
        {
          "internalType": "uint256",
          "name": "totalBorrowInEth",
          "type": "uint256"
        },
        {
          "internalType": "uint256",
          "name": "healthFactor",
          "type": "uint256"
        },
        {
          "internalType": "uint256",
          "name": "ethPerUsd",
          "type": "uint256"
        }
      ],
      "stateMutability": "view",
      "type": "function"
    },
    {
      "inputs": [
        {
          "internalType": "address",
          "name": "account",
          "type": "address"
        },
        {
          "internalType": "uint256",
          "name": "index",
          "type": "uint256"
        }
      ],
      "name": "getUserProtectionAt",
      "outputs": [
        {
          "internalType": "bytes32",
          "name": "protectionId",
          "type": "bytes32"
        }
      ],
      "stateMutability": "view",
      "type": "function"
    },
    {
      "inputs": [
        {
          "internalType": "bytes32",
          "name": "id",
          "type": "bytes32"
        }
      ],
      "name": "getUserProtectionData",
      "outputs": [
        {
          "components": [
            {
              "internalType": "uint256",
              "name": "thresholdHealthFactor",
              "type": "uint256"
            },
            {
              "internalType": "uint256",
              "name": "wantedHealthFactor",
              "type": "uint256"
            },
            {
              "internalType": "contract CTokenInterface",
              "name": "colToken",
              "type": "address"
            },
            {
              "internalType": "contract CTokenInterface",
              "name": "debtToken",
              "type": "address"
            }
          ],
          "internalType": "struct CreamLoanSaver.ProtectionData",
          "name": "",
          "type": "tuple"
        }
      ],
      "stateMutability": "view",
      "type": "function"
    },
    {
      "inputs": [
        {
          "internalType": "address",
          "name": "asset",
          "type": "address"
        },
        {
          "internalType": "address",
          "name": "account",
          "type": "address"
        }
      ],
      "name": "getUserReserveData",
      "outputs": [
        {
          "internalType": "uint256",
          "name": "balanceUnderlying",
          "type": "uint256"
        },
        {
          "internalType": "uint256",
          "name": "debtUnderlying",
          "type": "uint256"
        },
        {
          "internalType": "uint256",
          "name": "exchangeRateStored",
          "type": "uint256"
        },
        {
          "internalType": "uint256",
          "name": "borrowRatePerBlock",
          "type": "uint256"
        },
        {
          "internalType": "uint256",
          "name": "supplyRatePerBlock",
          "type": "uint256"
        }
      ],
      "stateMutability": "view",
      "type": "function"
    },
    {
      "inputs": [
        {
          "internalType": "address",
          "name": "account",
          "type": "address"
        }
      ],
      "name": "isUnderThresholdHealthFactor",
      "outputs": [
        {
          "internalType": "bool",
          "name": "",
          "type": "bool"
        }
      ],
      "stateMutability": "view",
      "type": "function"
    },
    {
      "inputs": [],
      "name": "oracle",
      "outputs": [
        {
          "internalType": "contract IPriceOracle",
          "name": "",
          "type": "address"
        }
      ],
      "stateMutability": "view",
      "type": "function"
    },
    {
      "inputs": [],
      "name": "pokeMe",
      "outputs": [
        {
          "internalType": "address payable",
          "name": "",
          "type": "address"
        }
      ],
      "stateMutability": "view",
      "type": "function"
    },
    {
      "inputs": [],
      "name": "protectionFeeBps",
      "outputs": [
        {
          "internalType": "uint256",
          "name": "",
          "type": "uint256"
        }
      ],
      "stateMutability": "view",
      "type": "function"
    },
    {
      "inputs": [
        {
          "internalType": "address",
          "name": "account",
          "type": "address"
        },
        {
          "internalType": "bytes32",
          "name": "protectionId",
          "type": "bytes32"
        }
      ],
      "name": "saveLoan",
      "outputs": [],
      "stateMutability": "nonpayable",
      "type": "function"
    },
    {
      "inputs": [],
      "name": "uniswapRouter",
      "outputs": [
        {
          "internalType": "contract IUniswapV2Router02",
          "name": "",
          "type": "address"
        }
      ],
      "stateMutability": "view",
      "type": "function"
    }
  ],
  "bytecode": "0x6101406040523480156200001257600080fd5b506040516200296238038062002962833981016040819052620000359162000076565b6001600160601b0319606096871b811660805292861b831660a05293851b82166101005291841b81166101205290831b811660c052911b1660e05262000122565b60008060008060008060c087890312156200008f578182fd5b86516200009c8162000109565b6020880151909650620000af8162000109565b6040880151909550620000c28162000109565b6060880151909450620000d58162000109565b6080880151909350620000e88162000109565b60a0880151909250620000fb8162000109565b809150509295509295509295565b6001600160a01b03811681146200011f57600080fd5b50565b60805160601c60a05160601c60c05160601c60e05160601c6101005160601c6101205160601c612791620001d160003960008181610b240152610d450152600081816109b80152611851015260008181610ab20152818161107a0152611822015260008181610a8e0152818161128701528181611443015261147f0152600081816106450152818161099401528181610da60152610e4801526000818161051e0152610b0001526127916000f3fe608060405234801561001057600080fd5b50600436106101005760003560e01c806368d1c22d11610097578063bf92857c11610066578063bf92857c146101df578063c84eee0d14610202578063eff557a71461020a578063f97c9fe81461021257610100565b806368d1c22d146101a7578063735de9f7146101c75780637dc0d1d0146101cf578063bbba205d146101d757610100565b806359e1868a116100d357806359e1868a1461016f5780635fe3b5671461018257806366408eb01461019757806366dfd4891461019f57610100565b8063086d89f31461010557806328dd2d0114610123578063405b019d146101475780634e6100631461015c575b600080fd5b61010d610232565b60405161011a9190612275565b60405180910390f35b610136610131366004611e2f565b610238565b60405161011a9594939291906125f1565b61015a610155366004611e67565b6104a5565b005b61015a61016a366004611f0c565b610513565b61010d61017d366004611f0c565b610967565b61018a610992565b60405161011a9190612185565b61018a6109b6565b61010d6109da565b6101ba6101b5366004611ca2565b6109e0565b60405161011a919061226a565b61018a610a8c565b61018a610ab0565b61010d610ad4565b6101f26101ed366004611ca2565b610ae0565b60405161011a94939291906125d6565b61018a610afe565b61018a610b22565b6102256102203660046120ae565b610b46565b60405161011a9190612558565b60015481565b600080600080600080879050806001600160a01b0316633af9e669886040518263ffffffff1660e01b81526004016102709190612185565b60206040518083038186803b15801561028857600080fd5b505afa15801561029c573d6000803e3d6000fd5b505050506040513d601f19601f820116820180604052508101906102c091906120c6565b6040516395dd919360e01b81529096506001600160a01b038216906395dd9193906102ef908a90600401612185565b60206040518083038186803b15801561030757600080fd5b505afa15801561031b573d6000803e3d6000fd5b505050506040513d601f19601f8201168201806040525081019061033f91906120c6565b9450806001600160a01b031663182df0f56040518163ffffffff1660e01b815260040160206040518083038186803b15801561037a57600080fd5b505afa15801561038e573d6000803e3d6000fd5b505050506040513d601f19601f820116820180604052508101906103b291906120c6565b9350806001600160a01b031663f8f9da286040518163ffffffff1660e01b815260040160206040518083038186803b1580156103ed57600080fd5b505afa158015610401573d6000803e3d6000fd5b505050506040513d601f19601f8201168201806040525081019061042591906120c6565b9250806001600160a01b031663ae9d70b06040518163ffffffff1660e01b815260040160206040518083038186803b15801561046057600080fd5b505afa158015610474573d6000803e3d6000fd5b505050506040513d601f19601f8201168201806040525081019061049891906120c6565b9150509295509295909350565b60006104b382840184611d1c565b915050306001600160a01b0388161480156104db57508051604001516001600160a01b031633145b6105005760405162461bcd60e51b81526004016104f7906123bd565b60405180910390fd5b61050a8482610b9f565b50505050505050565b336001600160a01b037f0000000000000000000000000000000000000000000000000000000000000000161461055b5760405162461bcd60e51b81526004016104f790612291565b6001600160a01b038216600090815260026020526040902061057d9082610d84565b6105995760405162461bcd60e51b81526004016104f790612424565b60008181526003602081815260408084208151608081018352815481526001820154818501526002808301546001600160a01b03908116838601529290950154821660608201529087168552929091529091206105f69083610d90565b5060008281526003602081905260408220828155600181018390556002810180546001600160a01b0319908116909155910180549091169055808061063a86610d9c565b5092509250925060007f00000000000000000000000000000000000000000000000000000000000000006001600160a01b0316638e8f294b86604001516040518263ffffffff1660e01b81526004016106939190612185565b60606040518083038186803b1580156106ab57600080fd5b505afa1580156106bf573d6000803e3d6000fd5b505050506040513d601f19601f820116820180604052508101906106e39190612073565b5091505060006106f68660400151611060565b9050600082116107185760405162461bcd60e51b81526004016104f7906123f4565b855183106107385760405162461bcd60e51b81526004016104f790612345565b600081116107585760405162461bcd60e51b81526004016104f790612452565b60006107c460405180610120016040528089604001516001600160a01b0316815260200189606001516001600160a01b031681526020018481526020018960200151815260200185815260200188815260200187815260200160015481526020016000548152506110ff565b9050600081116107e65760405162461bcd60e51b81526004016104f7906122c8565b600087604001516001600160a01b0316636f307dc36040518163ffffffff1660e01b815260040160206040518083038186803b15801561082557600080fd5b505afa158015610839573d6000803e3d6000fd5b505050506040513d601f19601f8201168201806040525081019061085d9190611cbe565b88606001516001600160a01b0316636f307dc36040518163ffffffff1660e01b815260040160206040518083038186803b15801561089a57600080fd5b505afa1580156108ae573d6000803e3d6000fd5b505050506040513d601f19601f820116820180604052508101906108d29190611cbe565b836040516020016108e5939291906121b3565b60405160208183030381529060405290506109298860400151308460405180606001604052808d81526020018f6001600160a01b03168152602001868152506111d1565b6109328a610d9c565b508a51909750871115915061095b90505760405162461bcd60e51b81526004016104f790612386565b50505050505050505050565b6001600160a01b0382166000908152600260205260408120610989908361125a565b90505b92915050565b7f000000000000000000000000000000000000000000000000000000000000000081565b7f000000000000000000000000000000000000000000000000000000000000000081565b60005481565b6001600160a01b038116600090815260026020526040812081908190610a0590611266565b90506000610a1285610d9c565b509250505060005b82811015610a7e576001600160a01b0386166000908152600260205260409020610a44908261125a565b600081815260036020526040902054909450828110610a6b57600195505050505050610a87565b5080610a76816126fc565b915050610a1a565b50600093505050505b919050565b7f000000000000000000000000000000000000000000000000000000000000000081565b7f000000000000000000000000000000000000000000000000000000000000000081565b670de0b6b3a764000081565b600080600080610aef85610d9c565b93509350935093509193509193565b7f000000000000000000000000000000000000000000000000000000000000000081565b7f000000000000000000000000000000000000000000000000000000000000000081565b610b4e611be2565b5060009081526003602081815260409283902083516080810185528154815260018201549281019290925260028101546001600160a01b039081169483019490945290910154909116606082015290565b8051602080830151604084015180519192909160009182918291610bc99186018101908601611cda565b9250925092506000826001600160a01b03166370a08231306040518263ffffffff1660e01b8152600401610bfd9190612185565b60206040518083038186803b158015610c1557600080fd5b505afa158015610c29573d6000803e3d6000fd5b505050506040513d601f19601f82011682018060405250810190610c4d91906120c6565b9050610c5a848484611271565b600081846001600160a01b03166370a08231306040518263ffffffff1660e01b8152600401610c899190612185565b60206040518083038186803b158015610ca157600080fd5b505afa158015610cb5573d6000803e3d6000fd5b505050506040513d601f19601f82011682018060405250810190610cd991906120c6565b610ce391906126b9565b9050610cf5886060015185898461151b565b5050600061271060015483610d0a919061269a565b610d14919061267a565b9050600089610d238385612662565b610d2d9190612662565b9050610d3f88604001518830846115ad565b610d6a857f000000000000000000000000000000000000000000000000000000000000000084611671565b61095b8589604001518c86610d7f9190612662565b6116cc565b600061098983836116e3565b600061098983836116fb565b60008060008060007f00000000000000000000000000000000000000000000000000000000000000006001600160a01b0316635ec88c79876040518263ffffffff1660e01b8152600401610df09190612185565b60606040518083038186803b158015610e0857600080fd5b505afa158015610e1c573d6000803e3d6000fd5b505050506040513d601f19601f82011682018060405250810190610e4091906120de565b5091505060007f00000000000000000000000000000000000000000000000000000000000000006001600160a01b031663abfceffc886040518263ffffffff1660e01b8152600401610e929190612185565b60006040518083038186803b158015610eaa57600080fd5b505afa158015610ebe573d6000803e3d6000fd5b505050506040513d6000823e601f3d908101601f19168201604052610ee69190810190611f37565b9050610ef0611818565b815190935060005b8181101561101f576000838281518110610f2257634e487b7160e01b600052603260045260246000fd5b60200260200101516001600160a01b03166395dd91938b6040518263ffffffff1660e01b8152600401610f559190612185565b60206040518083038186803b158015610f6d57600080fd5b505afa158015610f81573d6000803e3d6000fd5b505050506040513d601f19601f82011682018060405250810190610fa591906120c6565b9050801561100c576000610fdf858481518110610fd257634e487b7160e01b600052603260045260246000fd5b6020026020010151611060565b9050670de0b6b3a7640000610ff4828461269a565b610ffe919061267a565b611008908a612662565b9850505b5080611017816126fc565b915050610ef8565b50670de0b6b3a76400009050611035848461269a565b61103f919061267a565b6110499086612662565b955061105586866118eb565b935050509193509193565b60405163fc57d4df60e01b81526000906001600160a01b037f0000000000000000000000000000000000000000000000000000000000000000169063fc57d4df906110af908590600401612185565b60206040518083038186803b1580156110c757600080fd5b505afa1580156110db573d6000803e3d6000fd5b505050506040513d601f19601f8201168201806040525081019061098c91906120c6565b6000808260e0015183610100015161271061111a9190612662565b6111249190612662565b61113490655af3107a400061269a565b836060015161114391906126b9565b670de0b6b3a76400008460a0015161115b919061269a565b8460c00151856060015161116f919061269a565b61117991906126b9565b611183919061267a565b90508260400151670de0b6b3a76400008460800151670de0b6b3a7640000846111ac919061269a565b6111b6919061267a565b6111c0919061269a565b6111ca919061267a565b9392505050565b836001600160a01b031663e0232b42848487856040516020016111f59291906121d7565b6040516020818303038152906040526040518463ffffffff1660e01b815260040161122293929190612243565b600060405180830381600087803b15801561123c57600080fd5b505af1158015611250573d6000803e3d6000fd5b5050505050505050565b60006109898383611917565b600061098c8261194f565b6060600061128142610384612662565b905060007f00000000000000000000000000000000000000000000000000000000000000006001600160a01b031663ad5c46486040518163ffffffff1660e01b815260040160206040518083038186803b1580156112de57600080fd5b505afa1580156112f2573d6000803e3d6000fd5b505050506040513d601f19601f820116820180604052508101906113169190611cbe565b9050806001600160a01b0316856001600160a01b0316141561133757611513565b806001600160a01b0316866001600160a01b0316141561135657611513565b604080516003808252608082019092529060208201606080368337019050509250858360008151811061139957634e487b7160e01b600052603260045260246000fd5b60200260200101906001600160a01b031690816001600160a01b03168152505080836001815181106113db57634e487b7160e01b600052603260045260246000fd5b60200260200101906001600160a01b031690816001600160a01b031681525050848360028151811061141d57634e487b7160e01b600052603260045260246000fd5b60200260200101906001600160a01b031690816001600160a01b031681525050611468867f0000000000000000000000000000000000000000000000000000000000000000866116cc565b6040516338ed173960e01b81526001600160a01b037f000000000000000000000000000000000000000000000000000000000000000016906338ed1739906114bd908790600190889030908990600401612566565b600060405180830381600087803b1580156114d757600080fd5b505af11580156114eb573d6000803e3d6000fd5b505050506040513d6000823e601f3d908101601f1916820160405261050a9190810190611fd5565b505050505050565b6115268385836116cc565b6040516304c11f0360e31b81526001600160a01b03851690632608f81890611554908590859060040161222a565b602060405180830381600087803b15801561156e57600080fd5b505af1158015611582573d6000803e3d6000fd5b505050506040513d601f19601f820116820180604052508101906115a691906120c6565b5050505050565b611645848484876001600160a01b031663182df0f56040518163ffffffff1660e01b815260040160206040518083038186803b1580156115ec57600080fd5b505afa158015611600573d6000803e3d6000fd5b505050506040513d601f19601f8201168201806040525081019061162491906120c6565b611636670de0b6b3a76400008761269a565b611640919061267a565b611953565b60405163852a12e360e01b81526001600160a01b0385169063852a12e390611554908490600401612275565b6116c78363a9059cbb60e01b848460405160240161169092919061222a565b60408051601f198184030181529190526020810180516001600160e01b03166001600160e01b03199093169290921790915261197a565b505050565b6116d883836000611a09565b6116c7838383611a09565b60009081526001919091016020526040902054151590565b6000818152600183016020526040812054801561180e57600061171f6001836126b9565b8554909150600090611733906001906126b9565b90508181146117b457600086600001828154811061176157634e487b7160e01b600052603260045260246000fd5b906000526020600020015490508087600001848154811061179257634e487b7160e01b600052603260045260246000fd5b6000918252602080832090910192909255918252600188019052604090208390555b85548690806117d357634e487b7160e01b600052603160045260246000fd5b60019003818190600052602060002001600090559055856001016000868152602001908152602001600020600090556001935050505061098c565b600091505061098c565b600064e8d4a510007f00000000000000000000000000000000000000000000000000000000000000006001600160a01b031663fc57d4df7f00000000000000000000000000000000000000000000000000000000000000006040518263ffffffff1660e01b815260040161188c9190612185565b60206040518083038186803b1580156118a457600080fd5b505afa1580156118b8573d6000803e3d6000fd5b505050506040513d601f19601f820116820180604052508101906118dc91906120c6565b6118e6919061267a565b905090565b6000816118fa5750600061098c565b8161190d670de0b6b3a76400008561269a565b610989919061267a565b600082600001828154811061193c57634e487b7160e01b600052603260045260246000fd5b9060005260206000200154905092915050565b5490565b611974846323b872dd60e01b858585604051602401611690939291906121b3565b50505050565b60006119cf826040518060400160405280602081526020017f5361666545524332303a206c6f772d6c6576656c2063616c6c206661696c6564815250856001600160a01b0316611acc9092919063ffffffff16565b8051909150156116c757808060200190518101906119ed9190612059565b6116c75760405162461bcd60e51b81526004016104f7906124b8565b801580611a915750604051636eb1769f60e11b81526001600160a01b0384169063dd62ed3e90611a3f9030908690600401612199565b60206040518083038186803b158015611a5757600080fd5b505afa158015611a6b573d6000803e3d6000fd5b505050506040513d601f19601f82011682018060405250810190611a8f91906120c6565b155b611aad5760405162461bcd60e51b81526004016104f790612502565b6116c78363095ea7b360e01b848460405160240161169092919061222a565b6060611adb8484600085611ae3565b949350505050565b606082471015611b055760405162461bcd60e51b81526004016104f7906122ff565b611b0e85611ba3565b611b2a5760405162461bcd60e51b81526004016104f790612481565b600080866001600160a01b03168587604051611b469190612169565b60006040518083038185875af1925050503d8060008114611b83576040519150601f19603f3d011682016040523d82523d6000602084013e611b88565b606091505b5091509150611b98828286611ba9565b979650505050505050565b3b151590565b60608315611bb85750816111ca565b825115611bc85782518084602001fd5b8160405162461bcd60e51b81526004016104f7919061227e565b6040518060800160405280600081526020016000815260200160006001600160a01b0316815260200160006001600160a01b031681525090565b8035610a8781612743565b80518015158114610a8757600080fd5b600082601f830112611c47578081fd5b813567ffffffffffffffff811115611c6157611c6161272d565b611c74601f8201601f1916602001612614565b818152846020838601011115611c88578283fd5b816020850160208301379081016020019190915292915050565b600060208284031215611cb3578081fd5b81356111ca81612743565b600060208284031215611ccf578081fd5b81516111ca81612743565b600080600060608486031215611cee578182fd5b8351611cf981612743565b6020850151909350611d0a81612743565b80925050604084015190509250925092565b6000806040808486031215611d2f578283fd5b8335611d3a81612743565b9250602084013567ffffffffffffffff80821115611d56578384fd5b9085019081870360c0811215611d6a578485fd5b8351606081018181108482111715611d8457611d8461272d565b8086526080831215611d94578687fd5b60e0820192508083108484111715611dae57611dae61272d565b91855283358252602084013560808201528385013591611dcd83612743565b8260a083015260608501359250611de383612743565b60c082018390528152611df860808501611c1c565b602082015260a0840135915082821115611e10578586fd5b611e1c89838601611c37565b8582015280955050505050509250929050565b60008060408385031215611e41578182fd5b8235611e4c81612743565b91506020830135611e5c81612743565b809150509250929050565b60008060008060008060a08789031215611e7f578182fd5b8635611e8a81612743565b95506020870135611e9a81612743565b94506040870135935060608701359250608087013567ffffffffffffffff80821115611ec4578384fd5b818901915089601f830112611ed7578384fd5b813581811115611ee5578485fd5b8a6020828501011115611ef6578485fd5b6020830194508093505050509295509295509295565b60008060408385031215611f1e578182fd5b8235611f2981612743565b946020939093013593505050565b60006020808385031215611f49578182fd5b825167ffffffffffffffff811115611f5f578283fd5b8301601f81018513611f6f578283fd5b8051611f82611f7d8261263e565b612614565b8181528381019083850185840285018601891015611f9e578687fd5b8694505b83851015611fc9578051611fb581612743565b835260019490940193918501918501611fa2565b50979650505050505050565b60006020808385031215611fe7578182fd5b825167ffffffffffffffff811115611ffd578283fd5b8301601f8101851361200d578283fd5b805161201b611f7d8261263e565b8181528381019083850185840285018601891015612037578687fd5b8694505b83851015611fc957805183526001949094019391850191850161203b565b60006020828403121561206a578081fd5b61098982611c27565b600080600060608486031215612087578081fd5b61209084611c27565b9250602084015191506120a560408501611c27565b90509250925092565b6000602082840312156120bf578081fd5b5035919050565b6000602082840312156120d7578081fd5b5051919050565b6000806000606084860312156120f2578081fd5b8351925060208401519150604084015190509250925092565b600081518084526121238160208601602086016126d0565b601f01601f19169290920160200192915050565b80518252602080820151908301526040808201516001600160a01b039081169184019190915260609182015116910152565b6000825161217b8184602087016126d0565b9190910192915050565b6001600160a01b0391909116815260200190565b6001600160a01b0392831681529116602082015260400190565b6001600160a01b039384168152919092166020820152604081019190915260600190565b600060018060a01b038085168352604060208401526121fa604084018551612137565b8060208501511660c084015250604083015160c060e084015261222161010084018261210b565b95945050505050565b6001600160a01b03929092168252602082015260400190565b600060018060a01b038516825283602083015260606040830152612221606083018461210b565b901515815260200190565b90815260200190565b600060208252610989602083018461210b565b60208082526017908201527f506f6b654d6552656164793a206f6e6c79506f6b654d65000000000000000000604082015260600190565b6020808252601b908201527f616d6f756e742d746f2d666c6173682d626f72726f772d7a65726f0000000000604082015260600190565b60208082526026908201527f416464726573733a20696e73756666696369656e742062616c616e636520666f6040820152651c8818d85b1b60d21b606082015260800190565b60208082526021908201527f6865616c74682d666163746f722d6e6f742d756e6465722d7468726573686f6c6040820152601960fa1b606082015260800190565b60208082526019908201527f6865616c74682d666163746f722d737461792d756e7361666500000000000000604082015260600190565b6020808252601e908201527f666c6173686c6f616e2d63616c6c6261636b2d6f6e6c792d63546f6b656e0000604082015260600190565b602080825260169082015275636f6c6c61746572616c2d666163746f722d7a65726f60501b604082015260600190565b6020808252601490820152731c1c9bdd1958dd1a5bdb8b5b9bdd0b599bdd5b9960621b604082015260600190565b602080825260159082015274636f6c6c61746572616c2d70726963652d7a65726f60581b604082015260600190565b6020808252601d908201527f416464726573733a2063616c6c20746f206e6f6e2d636f6e7472616374000000604082015260600190565b6020808252602a908201527f5361666545524332303a204552433230206f7065726174696f6e20646964206e6040820152691bdd081cdd58d8d9595960b21b606082015260800190565b60208082526036908201527f5361666545524332303a20617070726f76652066726f6d206e6f6e2d7a65726f60408201527520746f206e6f6e2d7a65726f20616c6c6f77616e636560501b606082015260800190565b6080810161098c8284612137565b600060a082018783526020878185015260a0604085015281875180845260c0860191508289019350845b818110156125b55784516001600160a01b031683529383019391830191600101612590565b50506001600160a01b03969096166060850152505050608001529392505050565b93845260208401929092526040830152606082015260800190565b948552602085019390935260408401919091526060830152608082015260a00190565b60405181810167ffffffffffffffff811182821017156126365761263661272d565b604052919050565b600067ffffffffffffffff8211156126585761265861272d565b5060209081020190565b6000821982111561267557612675612717565b500190565b60008261269557634e487b7160e01b81526012600452602481fd5b500490565b60008160001904831182151516156126b4576126b4612717565b500290565b6000828210156126cb576126cb612717565b500390565b60005b838110156126eb5781810151838201526020016126d3565b838111156119745750506000910152565b600060001982141561271057612710612717565b5060010190565b634e487b7160e01b600052601160045260246000fd5b634e487b7160e01b600052604160045260246000fd5b6001600160a01b038116811461275857600080fd5b5056fea2646970667358221220fa81c52bb1ecb4ab3ee6cad0d7e53e94dd074f8d5c2e491c15c7087ae05ef63d64736f6c63430008000033",
  "linkReferences": {},
  "deployedLinkReferences": {}
}