{
  "_format": "hh-sol-artifact-1",
  "contractName": "TaskTreasury",
  "sourceName": "contracts/gelato/TaskTreasury.sol",
  "abi": [
    {
      "inputs": [
        {
          "internalType": "address payable",
          "name": "_gelato",
          "type": "address"
        }
      ],
      "stateMutability": "nonpayable",
      "type": "constructor"
    },
    {
      "anonymous": false,
      "inputs": [
        {
          "indexed": true,
          "internalType": "address",
          "name": "sender",
          "type": "address"
        },
        {
          "indexed": true,
          "internalType": "address",
          "name": "token",
          "type": "address"
        },
        {
          "indexed": true,
          "internalType": "uint256",
          "name": "amount",
          "type": "uint256"
        }
      ],
      "name": "FundsDeposited",
      "type": "event"
    },
    {
      "anonymous": false,
      "inputs": [
        {
          "indexed": true,
          "internalType": "address",
          "name": "receiver",
          "type": "address"
        },
        {
          "indexed": true,
          "internalType": "address",
          "name": "initiator",
          "type": "address"
        },
        {
          "indexed": true,
          "internalType": "address",
          "name": "token",
          "type": "address"
        },
        {
          "indexed": false,
          "internalType": "uint256",
          "name": "amount",
          "type": "uint256"
        }
      ],
      "name": "FundsWithdrawn",
      "type": "event"
    },
    {
      "anonymous": false,
      "inputs": [
        {
          "indexed": true,
          "internalType": "address",
          "name": "previousOwner",
          "type": "address"
        },
        {
          "indexed": true,
          "internalType": "address",
          "name": "newOwner",
          "type": "address"
        }
      ],
      "name": "OwnershipTransferred",
      "type": "event"
    },
    {
      "inputs": [
        {
          "internalType": "address",
          "name": "_service",
          "type": "address"
        }
      ],
      "name": "addWhitelistedService",
      "outputs": [],
      "stateMutability": "nonpayable",
      "type": "function"
    },
    {
      "inputs": [
        {
          "internalType": "address",
          "name": "_receiver",
          "type": "address"
        },
        {
          "internalType": "address",
          "name": "_token",
          "type": "address"
        },
        {
          "internalType": "uint256",
          "name": "_amount",
          "type": "uint256"
        }
      ],
      "name": "depositFunds",
      "outputs": [],
      "stateMutability": "payable",
      "type": "function"
    },
    {
      "inputs": [],
      "name": "gelato",
      "outputs": [
        {
          "internalType": "address payable",
          "name": "",
          "type": "address"
        }
      ],
      "stateMutability": "view",
      "type": "function"
    },
    {
      "inputs": [
        {
          "internalType": "address",
          "name": "_user",
          "type": "address"
        }
      ],
      "name": "getCreditTokensByUser",
      "outputs": [
        {
          "internalType": "address[]",
          "name": "",
          "type": "address[]"
        }
      ],
      "stateMutability": "view",
      "type": "function"
    },
    {
      "inputs": [],
      "name": "getWhitelistedServices",
      "outputs": [
        {
          "internalType": "address[]",
          "name": "",
          "type": "address[]"
        }
      ],
      "stateMutability": "view",
      "type": "function"
    },
    {
      "inputs": [],
      "name": "owner",
      "outputs": [
        {
          "internalType": "address",
          "name": "",
          "type": "address"
        }
      ],
      "stateMutability": "view",
      "type": "function"
    },
    {
      "inputs": [
        {
          "internalType": "address",
          "name": "_service",
          "type": "address"
        }
      ],
      "name": "removeWhitelistedService",
      "outputs": [],
      "stateMutability": "nonpayable",
      "type": "function"
    },
    {
      "inputs": [],
      "name": "renounceOwnership",
      "outputs": [],
      "stateMutability": "nonpayable",
      "type": "function"
    },
    {
      "inputs": [
        {
          "internalType": "address",
          "name": "newOwner",
          "type": "address"
        }
      ],
      "name": "transferOwnership",
      "outputs": [],
      "stateMutability": "nonpayable",
      "type": "function"
    },
    {
      "inputs": [
        {
          "internalType": "address",
          "name": "_token",
          "type": "address"
        },
        {
          "internalType": "uint256",
          "name": "_amount",
          "type": "uint256"
        },
        {
          "internalType": "address",
          "name": "_user",
          "type": "address"
        }
      ],
      "name": "useFunds",
      "outputs": [],
      "stateMutability": "nonpayable",
      "type": "function"
    },
    {
      "inputs": [
        {
          "internalType": "address",
          "name": "",
          "type": "address"
        },
        {
          "internalType": "address",
          "name": "",
          "type": "address"
        }
      ],
      "name": "userTokenBalance",
      "outputs": [
        {
          "internalType": "uint256",
          "name": "",
          "type": "uint256"
        }
      ],
      "stateMutability": "view",
      "type": "function"
    },
    {
      "inputs": [
        {
          "internalType": "address payable",
          "name": "_receiver",
          "type": "address"
        },
        {
          "internalType": "address",
          "name": "_token",
          "type": "address"
        },
        {
          "internalType": "uint256",
          "name": "_amount",
          "type": "uint256"
        }
      ],
      "name": "withdrawFunds",
      "outputs": [],
      "stateMutability": "nonpayable",
      "type": "function"
    }
  ],
  "bytecode": "0x60a060405234801561001057600080fd5b506040516115e73803806115e783398101604081905261002f916100ac565b61003f61003a610058565b61005c565b6001805560601b6001600160601b0319166080526100da565b3390565b600080546001600160a01b038381166001600160a01b0319831681178455604051919092169283917f8be0079c531659141344cd1fd0a4f28419497f9722a3daafe3b4186f6b6457e09190a35050565b6000602082840312156100bd578081fd5b81516001600160a01b03811681146100d3578182fd5b9392505050565b60805160601c6114e86100ff6000396000818161044101526105dc01526114e86000f3fe6080604052600436106100a75760003560e01c8063848f5f3d11610064578063848f5f3d146101705780638da5cb5b14610190578063b47064c8146101a5578063c1461d57146101d2578063c63aa029146101e5578063f2fde38b14610205576100a7565b80631c20fadd146100ac5780632bf30a0e146100ce578063573ea575146101045780635dfad06a146101265780636f192acc1461013b578063715018a61461015b575b600080fd5b3480156100b857600080fd5b506100cc6100c7366004610f7d565b610225565b005b3480156100da57600080fd5b506100ee6100e9366004610f61565b610344565b6040516100fb91906110f2565b60405180910390f35b34801561011057600080fd5b5061011961043f565b6040516100fb91906110a1565b34801561013257600080fd5b506100ee610463565b34801561014757600080fd5b506100cc610156366004611009565b61052f565b34801561016757600080fd5b506100cc610607565b34801561017c57600080fd5b506100cc61018b366004610f61565b610652565b34801561019c57600080fd5b506101196106c7565b3480156101b157600080fd5b506101c56101c0366004610fbd565b6106d6565b6040516100fb9190611408565b6100cc6101e0366004610ff5565b6106f3565b3480156101f157600080fd5b506100cc610200366004610f61565b610929565b34801561021157600080fd5b506100cc610220366004610f61565b61099b565b600260015414156102515760405162461bcd60e51b8152600401610248906113d1565b60405180910390fd5b60026001819055336000908152602091825260408082206001600160a01b038616835290925290812054906102868284610a0c565b90506102928183611429565b3360009081526002602090815260408083206001600160a01b03891684529091529020556102c1858583610a26565b818114156102e4573360009081526003602052604090206102e29085610ad8565b505b836001600160a01b0316336001600160a01b0316866001600160a01b03167fc322efa58c9cb2c39cfffdac61d35c8643f5cbf13c6a7d0034de2cf18923aff3846040516103319190611408565b60405180910390a4505060018055505050565b6001600160a01b03811660009081526003602052604081206060919061036990610aed565b905060008167ffffffffffffffff81111561039457634e487b7160e01b600052604160045260246000fd5b6040519080825280602002602001820160405280156103bd578160200160208202803683370190505b50905060005b82811015610437576001600160a01b03851660009081526003602052604090206103ed9082610af8565b82828151811061040d57634e487b7160e01b600052603260045260246000fd5b6001600160a01b03909216602092830291909101909101528061042f8161146c565b9150506103c3565b509392505050565b7f000000000000000000000000000000000000000000000000000000000000000081565b606060006104716004610aed565b905060008167ffffffffffffffff81111561049c57634e487b7160e01b600052604160045260246000fd5b6040519080825280602002602001820160405280156104c5578160200160208202803683370190505b50905060005b82811015610528576104de600482610af8565b8282815181106104fe57634e487b7160e01b600052603260045260246000fd5b6001600160a01b0390921660209283029190910190910152806105208161146c565b9150506104cb565b5091505090565b61053a600433610b04565b6105565760405162461bcd60e51b815260040161024890611342565b6001600160a01b03808216600090815260026020908152604080832093871683529290522054610587908390611429565b6001600160a01b0382811660009081526002602090815260408083209388168352929052208190556105d7576001600160a01b03811660009081526003602052604090206105d59084610ad8565b505b6106027f00000000000000000000000000000000000000000000000000000000000000008484610a26565b505050565b61060f610b19565b6001600160a01b03166106206106c7565b6001600160a01b0316146106465760405162461bcd60e51b815260040161024890611286565b6106506000610b1d565b565b61065a610b19565b6001600160a01b031661066b6106c7565b6001600160a01b0316146106915760405162461bcd60e51b815260040161024890611286565b61069c600482610b04565b6106b85760405162461bcd60e51b8152600401610248906111b8565b6106c3600482610ad8565b5050565b6000546001600160a01b031690565b600260209081526000928352604080842090915290825290205481565b60006001600160a01b03831673eeeeeeeeeeeeeeeeeeeeeeeeeeeeeeeeeeeeeeee141561072157503461084a565b6040516370a0823160e01b815283906000906001600160a01b038316906370a08231906107529030906004016110a1565b60206040518083038186803b15801561076a57600080fd5b505afa15801561077e573d6000803e3d6000fd5b505050506040513d601f19601f820116820180604052508101906107a2919061106a565b90506107b96001600160a01b038316333087610b6d565b6040516370a0823160e01b81526000906001600160a01b038416906370a08231906107e89030906004016110a1565b60206040518083038186803b15801561080057600080fd5b505afa158015610814573d6000803e3d6000fd5b505050506040513d601f19601f82011682018060405250810190610838919061106a565b90506108448282611429565b93505050505b6001600160a01b0380851660009081526002602090815260408083209387168352929052205461087b908290611411565b6001600160a01b038086166000818152600260209081526040808320948916835293815283822094909455908152600390925290206108ba9084610b04565b6108e2576001600160a01b03841660009081526003602052604090206108e09084610bcb565b505b80836001600160a01b0316856001600160a01b03167ff0d0e99cae184d0187b093b48894117462462379674a6e11d89c3fbb618e96b060405160405180910390a450505050565b610931610b19565b6001600160a01b03166109426106c7565b6001600160a01b0316146109685760405162461bcd60e51b815260040161024890611286565b610973600482610b04565b156109905760405162461bcd60e51b8152600401610248906112bb565b6106c3600482610bcb565b6109a3610b19565b6001600160a01b03166109b46106c7565b6001600160a01b0316146109da5760405162461bcd60e51b815260040161024890611286565b6001600160a01b038116610a005760405162461bcd60e51b815260040161024890611172565b610a0981610b1d565b50565b6000818310610a1b5781610a1d565b825b90505b92915050565b6001600160a01b03821673eeeeeeeeeeeeeeeeeeeeeeeeeeeeeeeeeeeeeeee1415610acd576000836001600160a01b031682604051610a649061109e565b60006040518083038185875af1925050503d8060008114610aa1576040519150601f19603f3d011682016040523d82523d6000602084013e610aa6565b606091505b5050905080610ac75760405162461bcd60e51b81526004016102489061124f565b50610602565b610602828483610be0565b6000610a1d836001600160a01b038416610bff565b6000610a2082610d1c565b6000610a1d8383610d20565b6000610a1d836001600160a01b038416610d58565b3390565b600080546001600160a01b038381166001600160a01b0319831681178455604051919092169283917f8be0079c531659141344cd1fd0a4f28419497f9722a3daafe3b4186f6b6457e09190a35050565b610bc5846323b872dd60e01b858585604051602401610b8e939291906110b5565b60408051601f198184030181529190526020810180516001600160e01b03166001600160e01b031990931692909217909152610d70565b50505050565b6000610a1d836001600160a01b038416610dff565b6106028363a9059cbb60e01b8484604051602401610b8e9291906110d9565b60008181526001830160205260408120548015610d12576000610c23600183611429565b8554909150600090610c3790600190611429565b9050818114610cb8576000866000018281548110610c6557634e487b7160e01b600052603260045260246000fd5b9060005260206000200154905080876000018481548110610c9657634e487b7160e01b600052603260045260246000fd5b6000918252602080832090910192909255918252600188019052604090208390555b8554869080610cd757634e487b7160e01b600052603160045260246000fd5b600190038181906000526020600020016000905590558560010160008681526020019081526020016000206000905560019350505050610a20565b6000915050610a20565b5490565b6000826000018281548110610d4557634e487b7160e01b600052603260045260246000fd5b9060005260206000200154905092915050565b60009081526001919091016020526040902054151590565b6000610dc5826040518060400160405280602081526020017f5361666545524332303a206c6f772d6c6576656c2063616c6c206661696c6564815250856001600160a01b0316610e499092919063ffffffff16565b8051909150156106025780806020019051810190610de3919061104a565b6106025760405162461bcd60e51b815260040161024890611387565b6000610e0b8383610d58565b610e4157508154600181810184556000848152602080822090930184905584548482528286019093526040902091909155610a20565b506000610a20565b6060610e588484600085610e62565b90505b9392505050565b606082471015610e845760405162461bcd60e51b815260040161024890611209565b610e8d85610f22565b610ea95760405162461bcd60e51b81526004016102489061130b565b600080866001600160a01b03168587604051610ec59190611082565b60006040518083038185875af1925050503d8060008114610f02576040519150601f19603f3d011682016040523d82523d6000602084013e610f07565b606091505b5091509150610f17828286610f28565b979650505050505050565b3b151590565b60608315610f37575081610e5b565b825115610f475782518084602001fd5b8160405162461bcd60e51b8152600401610248919061113f565b600060208284031215610f72578081fd5b8135610e5b8161149d565b600080600060608486031215610f91578182fd5b8335610f9c8161149d565b92506020840135610fac8161149d565b929592945050506040919091013590565b60008060408385031215610fcf578182fd5b8235610fda8161149d565b91506020830135610fea8161149d565b809150509250929050565b600080600060608486031215610f91578283fd5b60008060006060848603121561101d578283fd5b83356110288161149d565b925060208401359150604084013561103f8161149d565b809150509250925092565b60006020828403121561105b578081fd5b81518015158114610e5b578182fd5b60006020828403121561107b578081fd5b5051919050565b60008251611094818460208701611440565b9190910192915050565b90565b6001600160a01b0391909116815260200190565b6001600160a01b039384168152919092166020820152604081019190915260600190565b6001600160a01b03929092168252602082015260400190565b6020808252825182820181905260009190848201906040850190845b818110156111335783516001600160a01b03168352928401929184019160010161110e565b50909695505050505050565b600060208252825180602084015261115e816040850160208701611440565b601f01601f19169190910160400192915050565b60208082526026908201527f4f776e61626c653a206e6577206f776e657220697320746865207a65726f206160408201526564647265737360d01b606082015260800190565b60208082526031908201527f5461736b54726561737572793a2061646457686974656c6973746564536572766040820152701a58d94e88085dda1a5d195b1a5cdd1959607a1b606082015260800190565b60208082526026908201527f416464726573733a20696e73756666696369656e742062616c616e636520666f6040820152651c8818d85b1b60d21b606082015260800190565b6020808252601e908201527f5f7472616e736665723a20455448207472616e73666572206661696c65640000604082015260600190565b6020808252818101527f4f776e61626c653a2063616c6c6572206973206e6f7420746865206f776e6572604082015260600190565b60208082526030908201527f5461736b54726561737572793a2061646457686974656c69737465645365727660408201526f1a58d94e881dda1a5d195b1a5cdd195960821b606082015260800190565b6020808252601d908201527f416464726573733a2063616c6c20746f206e6f6e2d636f6e7472616374000000604082015260600190565b60208082526025908201527f5461736b54726561737572793a206f6e6c7957686974656c6973746564536572604082015264766963657360d81b606082015260800190565b6020808252602a908201527f5361666545524332303a204552433230206f7065726174696f6e20646964206e6040820152691bdd081cdd58d8d9595960b21b606082015260800190565b6020808252601f908201527f5265656e7472616e637947756172643a207265656e7472616e742063616c6c00604082015260600190565b90815260200190565b6000821982111561142457611424611487565b500190565b60008282101561143b5761143b611487565b500390565b60005b8381101561145b578181015183820152602001611443565b83811115610bc55750506000910152565b600060001982141561148057611480611487565b5060010190565b634e487b7160e01b600052601160045260246000fd5b6001600160a01b0381168114610a0957600080fdfea2646970667358221220722bf50cdf739d2dfa14f468662fab76ef0d464ee9343cbd337d83e42f456c0d64736f6c63430008000033",
  "linkReferences": {},
  "deployedLinkReferences": {}
}