{
  "_format": "hh-sol-artifact-1",
  "contractName": "CreamLoanSaverService",
  "sourceName": "contracts/CreamLoanSaverService.sol",
  "abi": [
    {
      "inputs": [
        {
          "internalType": "address payable",
          "name": "_pokeMe",
          "type": "address"
        },
        {
          "internalType": "address",
          "name": "_cusdcAddress",
          "type": "address"
        },
        {
          "internalType": "address",
          "name": "_gelato",
          "type": "address"
        },
        {
          "internalType": "contract IComptroller",
          "name": "_comptroller",
          "type": "address"
        },
        {
          "internalType": "contract IUniswapV2Router02",
          "name": "_uniswapRouter",
          "type": "address"
        },
        {
          "internalType": "contract IPriceOracle",
          "name": "_oracle",
          "type": "address"
        }
      ],
      "stateMutability": "nonpayable",
      "type": "constructor"
    },
    {
      "anonymous": false,
      "inputs": [
        {
          "indexed": true,
          "internalType": "address",
          "name": "previousOwner",
          "type": "address"
        },
        {
          "indexed": true,
          "internalType": "address",
          "name": "newOwner",
          "type": "address"
        }
      ],
      "name": "OwnershipTransferred",
      "type": "event"
    },
    {
      "anonymous": false,
      "inputs": [
        {
          "indexed": true,
          "internalType": "address",
          "name": "account",
          "type": "address"
        },
        {
          "indexed": true,
          "internalType": "bytes32",
          "name": "protectionId",
          "type": "bytes32"
        }
      ],
      "name": "ProtectionCanceled",
      "type": "event"
    },
    {
      "anonymous": false,
      "inputs": [
        {
          "indexed": true,
          "internalType": "address",
          "name": "account",
          "type": "address"
        },
        {
          "indexed": true,
          "internalType": "bytes32",
          "name": "protectionId",
          "type": "bytes32"
        }
      ],
      "name": "ProtectionSubmitted",
      "type": "event"
    },
    {
      "inputs": [],
      "name": "CUSDC_ADDRESS",
      "outputs": [
        {
          "internalType": "address",
          "name": "",
          "type": "address"
        }
      ],
      "stateMutability": "view",
      "type": "function"
    },
    {
      "inputs": [],
      "name": "EXP_SCALE",
      "outputs": [
        {
          "internalType": "uint256",
          "name": "",
          "type": "uint256"
        }
      ],
      "stateMutability": "view",
      "type": "function"
    },
    {
      "inputs": [],
      "name": "GELATO",
      "outputs": [
        {
          "internalType": "address",
          "name": "",
          "type": "address"
        }
      ],
      "stateMutability": "view",
      "type": "function"
    },
    {
      "inputs": [
        {
          "internalType": "contract CTokenInterface",
          "name": "cToken",
          "type": "address"
        }
      ],
      "name": "addTokenToWhiteList",
      "outputs": [],
      "stateMutability": "nonpayable",
      "type": "function"
    },
    {
      "inputs": [
        {
          "internalType": "bytes32",
          "name": "protectionId",
          "type": "bytes32"
        }
      ],
      "name": "cancelProtection",
      "outputs": [],
      "stateMutability": "nonpayable",
      "type": "function"
    },
    {
      "inputs": [],
      "name": "comptroller",
      "outputs": [
        {
          "internalType": "contract IComptroller",
          "name": "",
          "type": "address"
        }
      ],
      "stateMutability": "view",
      "type": "function"
    },
    {
      "inputs": [
        {
          "internalType": "address",
          "name": "sender",
          "type": "address"
        },
        {
          "internalType": "address",
          "name": "",
          "type": "address"
        },
        {
          "internalType": "uint256",
          "name": "",
          "type": "uint256"
        },
        {
          "internalType": "uint256",
          "name": "premiums",
          "type": "uint256"
        },
        {
          "internalType": "bytes",
          "name": "params",
          "type": "bytes"
        }
      ],
      "name": "executeOperation",
      "outputs": [],
      "stateMutability": "nonpayable",
      "type": "function"
    },
    {
      "inputs": [],
      "name": "flashFeeBps",
      "outputs": [
        {
          "internalType": "uint256",
          "name": "",
          "type": "uint256"
        }
      ],
      "stateMutability": "view",
      "type": "function"
    },
    {
      "inputs": [
        {
          "internalType": "address",
          "name": "account",
          "type": "address"
        }
      ],
      "name": "getUserAccountData",
      "outputs": [
        {
          "internalType": "uint256",
          "name": "totalCollateralInEth",
          "type": "uint256"
        },
        {
          "internalType": "uint256",
          "name": "totalBorrowInEth",
          "type": "uint256"
        },
        {
          "internalType": "uint256",
          "name": "healthFactor",
          "type": "uint256"
        },
        {
          "internalType": "uint256",
          "name": "ethPerUsd",
          "type": "uint256"
        }
      ],
      "stateMutability": "view",
      "type": "function"
    },
    {
      "inputs": [
        {
          "internalType": "address",
          "name": "account",
          "type": "address"
        },
        {
          "internalType": "uint256",
          "name": "index",
          "type": "uint256"
        }
      ],
      "name": "getUserProtectionAt",
      "outputs": [
        {
          "internalType": "bytes32",
          "name": "protectionId",
          "type": "bytes32"
        }
      ],
      "stateMutability": "view",
      "type": "function"
    },
    {
      "inputs": [
        {
          "internalType": "bytes32",
          "name": "id",
          "type": "bytes32"
        }
      ],
      "name": "getUserProtectionData",
      "outputs": [
        {
          "components": [
            {
              "internalType": "uint256",
              "name": "thresholdHealthFactor",
              "type": "uint256"
            },
            {
              "internalType": "uint256",
              "name": "wantedHealthFactor",
              "type": "uint256"
            },
            {
              "internalType": "contract CTokenInterface",
              "name": "colToken",
              "type": "address"
            },
            {
              "internalType": "contract CTokenInterface",
              "name": "debtToken",
              "type": "address"
            }
          ],
          "internalType": "struct CreamLoanSaver.ProtectionData",
          "name": "",
          "type": "tuple"
        }
      ],
      "stateMutability": "view",
      "type": "function"
    },
    {
      "inputs": [
        {
          "internalType": "address",
          "name": "asset",
          "type": "address"
        },
        {
          "internalType": "address",
          "name": "account",
          "type": "address"
        }
      ],
      "name": "getUserReserveData",
      "outputs": [
        {
          "internalType": "uint256",
          "name": "balanceUnderlying",
          "type": "uint256"
        },
        {
          "internalType": "uint256",
          "name": "debtUnderlying",
          "type": "uint256"
        },
        {
          "internalType": "uint256",
          "name": "exchangeRateStored",
          "type": "uint256"
        },
        {
          "internalType": "uint256",
          "name": "borrowRatePerBlock",
          "type": "uint256"
        },
        {
          "internalType": "uint256",
          "name": "supplyRatePerBlock",
          "type": "uint256"
        }
      ],
      "stateMutability": "view",
      "type": "function"
    },
    {
      "inputs": [
        {
          "internalType": "address",
          "name": "account",
          "type": "address"
        }
      ],
      "name": "isUnderThresholdHealthFactor",
      "outputs": [
        {
          "internalType": "bool",
          "name": "",
          "type": "bool"
        }
      ],
      "stateMutability": "view",
      "type": "function"
    },
    {
      "inputs": [],
      "name": "oracle",
      "outputs": [
        {
          "internalType": "contract IPriceOracle",
          "name": "",
          "type": "address"
        }
      ],
      "stateMutability": "view",
      "type": "function"
    },
    {
      "inputs": [],
      "name": "owner",
      "outputs": [
        {
          "internalType": "address",
          "name": "",
          "type": "address"
        }
      ],
      "stateMutability": "view",
      "type": "function"
    },
    {
      "inputs": [],
      "name": "pokeMe",
      "outputs": [
        {
          "internalType": "address payable",
          "name": "",
          "type": "address"
        }
      ],
      "stateMutability": "view",
      "type": "function"
    },
    {
      "inputs": [],
      "name": "protectionFeeBps",
      "outputs": [
        {
          "internalType": "uint256",
          "name": "",
          "type": "uint256"
        }
      ],
      "stateMutability": "view",
      "type": "function"
    },
    {
      "inputs": [
        {
          "internalType": "contract CTokenInterface",
          "name": "cToken",
          "type": "address"
        }
      ],
      "name": "removeTokenFromWhiteList",
      "outputs": [],
      "stateMutability": "nonpayable",
      "type": "function"
    },
    {
      "inputs": [],
      "name": "renounceOwnership",
      "outputs": [],
      "stateMutability": "nonpayable",
      "type": "function"
    },
    {
      "inputs": [
        {
          "internalType": "address",
          "name": "account",
          "type": "address"
        },
        {
          "internalType": "bytes32",
          "name": "protectionId",
          "type": "bytes32"
        }
      ],
      "name": "saveLoan",
      "outputs": [],
      "stateMutability": "nonpayable",
      "type": "function"
    },
    {
      "inputs": [
        {
          "internalType": "uint256",
          "name": "_flashFeeBps",
          "type": "uint256"
        }
      ],
      "name": "setFlashFeeBps",
      "outputs": [],
      "stateMutability": "nonpayable",
      "type": "function"
    },
    {
      "inputs": [
        {
          "internalType": "uint256",
          "name": "_protectionFeeBps",
          "type": "uint256"
        }
      ],
      "name": "setProtectionFeeBps",
      "outputs": [],
      "stateMutability": "nonpayable",
      "type": "function"
    },
    {
      "inputs": [
        {
          "internalType": "uint256",
          "name": "thresholdHealthFactor",
          "type": "uint256"
        },
        {
          "internalType": "uint256",
          "name": "wantedHealthFactor",
          "type": "uint256"
        },
        {
          "internalType": "contract CTokenInterface",
          "name": "colToken",
          "type": "address"
        },
        {
          "internalType": "contract CTokenInterface",
          "name": "debtToken",
          "type": "address"
        },
        {
          "internalType": "address",
          "name": "_resolverAddress",
          "type": "address"
        },
        {
          "internalType": "bytes",
          "name": "_resolverData",
          "type": "bytes"
        },
        {
          "internalType": "bool",
          "name": "_useTaskTreasuryFunds",
          "type": "bool"
        }
      ],
      "name": "submitProtection",
      "outputs": [],
      "stateMutability": "nonpayable",
      "type": "function"
    },
    {
      "inputs": [
        {
          "internalType": "address",
          "name": "newOwner",
          "type": "address"
        }
      ],
      "name": "transferOwnership",
      "outputs": [],
      "stateMutability": "nonpayable",
      "type": "function"
    },
    {
      "inputs": [],
      "name": "uniswapRouter",
      "outputs": [
        {
          "internalType": "contract IUniswapV2Router02",
          "name": "",
          "type": "address"
        }
      ],
      "stateMutability": "view",
      "type": "function"
    },
    {
      "inputs": [
        {
          "internalType": "address",
          "name": "",
          "type": "address"
        }
      ],
      "name": "whiteListedTokens",
      "outputs": [
        {
          "internalType": "bool",
          "name": "",
          "type": "bool"
        }
      ],
      "stateMutability": "view",
      "type": "function"
    }
  ],
  "bytecode": "0x6101406040523480156200001257600080fd5b506040516200343a3803806200343a8339810160408190526200003591620000e7565b6001600160601b0319606087811b821660805284811b821660a05286811b82166101005285811b82166101205283811b821660c05282901b1660e052620000856200007f62000091565b62000095565b50505050505062000193565b3390565b600480546001600160a01b038381166001600160a01b0319831681179093556040519116919082907f8be0079c531659141344cd1fd0a4f28419497f9722a3daafe3b4186f6b6457e090600090a35050565b60008060008060008060c0878903121562000100578182fd5b86516200010d816200017a565b602088015190965062000120816200017a565b604088015190955062000133816200017a565b606088015190945062000146816200017a565b608088015190935062000159816200017a565b60a08801519092506200016c816200017a565b809150509295509295509295565b6001600160a01b03811681146200019057600080fd5b50565b60805160601c60a05160601c60c05160601c60e05160601c6101005160601c6101205160601c6131f1620002496000396000818161115d01526113ef015260008181610b920152611f5d015260008181610d3a015281816117280152611f2e015260008181610d160152818161199301528181611b4f0152611b8b0152600081816107db01528181610b6e0152818161145401526114f60152600081816106b401528181610f91015261112401526131f16000f3fe608060405234801561001057600080fd5b506004361061018e5760003560e01c8063735de9f7116100de578063bf92857c11610097578063d3c2638311610071578063d3c263831461031a578063eff557a71461032d578063f2fde38b14610335578063f97c9fe8146103485761018e565b8063bf92857c146102dc578063c45c73fd146102ff578063c84eee0d146103125761018e565b8063735de9f7146102965780637dc0d1d01461029e5780638da5cb5b146102a657806395122da2146102ae578063bb40eb3b146102c1578063bbba205d146102d45761018e565b806359e1868a1161014b57806366dfd4891161012557806366dfd4891461025357806367a332ae1461025b57806368d1c22d1461026e578063715018a61461028e5761018e565b806359e1868a146102235780635fe3b5671461023657806366408eb01461024b5761018e565b8063086d89f31461019357806328dd2d01146101b1578063405b019d146101d557806342a7a669146101ea5780634e610063146101fd5780635949432214610210575b600080fd5b61019b610368565b6040516101a89190612b4c565b60405180910390f35b6101c46101bf3660046125bc565b61036e565b6040516101a8959493929190613046565b6101e86101e33660046125f4565b6105db565b005b6101e86101f836600461242f565b610649565b6101e861020b36600461266e565b6106a9565b6101e861021e366004612819565b610afd565b61019b61023136600461266e565b610b41565b61023e610b6c565b6040516101a891906129ba565b61023e610b90565b61019b610bb4565b6101e861026936600461242f565b610bba565b61028161027c36600461242f565b610c1d565b6040516101a89190612b41565b6101e8610cc9565b61023e610d14565b61023e610d38565b61023e610d5c565b6101e86102bc366004612819565b610d6b565b6101e86102cf366004612849565b610daf565b61019b611043565b6102ef6102ea36600461242f565b61104f565b6040516101a8949392919061302b565b6101e861030d366004612819565b61106d565b61023e611122565b61028161032836600461242f565b611146565b61023e61115b565b6101e861034336600461242f565b61117f565b61035b610356366004612819565b6111f0565b6040516101a89190612fad565b60015481565b600080600080600080879050806001600160a01b0316633af9e669886040518263ffffffff1660e01b81526004016103a691906129ba565b60206040518083038186803b1580156103be57600080fd5b505afa1580156103d2573d6000803e3d6000fd5b505050506040513d601f19601f820116820180604052508101906103f69190612831565b6040516395dd919360e01b81529096506001600160a01b038216906395dd919390610425908a906004016129ba565b60206040518083038186803b15801561043d57600080fd5b505afa158015610451573d6000803e3d6000fd5b505050506040513d601f19601f820116820180604052508101906104759190612831565b9450806001600160a01b031663182df0f56040518163ffffffff1660e01b815260040160206040518083038186803b1580156104b057600080fd5b505afa1580156104c4573d6000803e3d6000fd5b505050506040513d601f19601f820116820180604052508101906104e89190612831565b9350806001600160a01b031663f8f9da286040518163ffffffff1660e01b815260040160206040518083038186803b15801561052357600080fd5b505afa158015610537573d6000803e3d6000fd5b505050506040513d601f19601f8201168201806040525081019061055b9190612831565b9250806001600160a01b031663ae9d70b06040518163ffffffff1660e01b815260040160206040518083038186803b15801561059657600080fd5b505afa1580156105aa573d6000803e3d6000fd5b505050506040513d601f19601f820116820180604052508101906105ce9190612831565b9150509295509295909350565b60006105e9828401846124a9565b915050306001600160a01b03881614801561061157508051604001516001600160a01b031633145b6106365760405162461bcd60e51b815260040161062d90612da6565b60405180910390fd5b6106408482611249565b50505050505050565b61065161142e565b6001600160a01b0316610662610d5c565b6001600160a01b0316146106885760405162461bcd60e51b815260040161062d90612e0d565b6001600160a01b03166000908152600560205260409020805460ff19169055565b336001600160a01b037f000000000000000000000000000000000000000000000000000000000000000016146106f15760405162461bcd60e51b815260040161062d90612c13565b6001600160a01b03821660009081526002602052604090206107139082611432565b61072f5760405162461bcd60e51b815260040161062d90612e42565b60008181526003602081815260408084208151608081018352815481526001820154818501526002808301546001600160a01b039081168386015292909501548216606082015290871685529290915290912061078c908361143e565b5060008281526003602081905260408220828155600181018390556002810180546001600160a01b031990811690915591018054909116905580806107d08661144a565b5092509250925060007f00000000000000000000000000000000000000000000000000000000000000006001600160a01b0316638e8f294b86604001516040518263ffffffff1660e01b815260040161082991906129ba565b60606040518083038186803b15801561084157600080fd5b505afa158015610855573d6000803e3d6000fd5b505050506040513d601f19601f8201168201806040525081019061087991906127d7565b50915050600061088c866040015161170e565b9050600082116108ae5760405162461bcd60e51b815260040161062d90612ddd565b855183106108ce5760405162461bcd60e51b815260040161062d90612d2e565b600081116108ee5760405162461bcd60e51b815260040161062d90612e70565b600061095a60405180610120016040528089604001516001600160a01b0316815260200189606001516001600160a01b031681526020018481526020018960200151815260200185815260200188815260200187815260200160015481526020016000548152506117ad565b90506000811161097c5760405162461bcd60e51b815260040161062d90612c4a565b600087604001516001600160a01b0316636f307dc36040518163ffffffff1660e01b815260040160206040518083038186803b1580156109bb57600080fd5b505afa1580156109cf573d6000803e3d6000fd5b505050506040513d601f19601f820116820180604052508101906109f3919061244b565b88606001516001600160a01b0316636f307dc36040518163ffffffff1660e01b815260040160206040518083038186803b158015610a3057600080fd5b505afa158015610a44573d6000803e3d6000fd5b505050506040513d601f19601f82011682018060405250810190610a68919061244b565b83604051602001610a7b939291906129e8565b6040516020818303038152906040529050610abf8860400151308460405180606001604052808d81526020018f6001600160a01b031681526020018681525061187f565b610ac88a61144a565b508a519097508711159150610af190505760405162461bcd60e51b815260040161062d90612d6f565b50505050505050505050565b610b0561142e565b6001600160a01b0316610b16610d5c565b6001600160a01b031614610b3c5760405162461bcd60e51b815260040161062d90612e0d565b600055565b6001600160a01b0382166000908152600260205260408120610b639083611908565b90505b92915050565b7f000000000000000000000000000000000000000000000000000000000000000081565b7f000000000000000000000000000000000000000000000000000000000000000081565b60005481565b610bc261142e565b6001600160a01b0316610bd3610d5c565b6001600160a01b031614610bf95760405162461bcd60e51b815260040161062d90612e0d565b6001600160a01b03166000908152600560205260409020805460ff19166001179055565b6001600160a01b038116600090815260026020526040812081908190610c4290611914565b90506000610c4f8561144a565b509250505060005b82811015610cbb576001600160a01b0386166000908152600260205260409020610c819082611908565b600081815260036020526040902054909450828110610ca857600195505050505050610cc4565b5080610cb381613151565b915050610c57565b50600093505050505b919050565b610cd161142e565b6001600160a01b0316610ce2610d5c565b6001600160a01b031614610d085760405162461bcd60e51b815260040161062d90612e0d565b610d12600061191f565b565b7f000000000000000000000000000000000000000000000000000000000000000081565b7f000000000000000000000000000000000000000000000000000000000000000081565b6004546001600160a01b031690565b610d7361142e565b6001600160a01b0316610d84610d5c565b6001600160a01b031614610daa5760405162461bcd60e51b815260040161062d90612e0d565b600155565b600033898989898888604051602001610dce9796959493929190612af1565b60408051601f19818403018152918152815160209283012033600090815260029093529120909150610e009082611432565b15610e1d5760405162461bcd60e51b815260040161062d90612bdc565b8888118015610e335750670de0b6b3a764000089115b610e4f5760405162461bcd60e51b815260040161062d90612c81565b856001600160a01b0316876001600160a01b03161415610e815760405162461bcd60e51b815260040161062d90612b68565b6001600160a01b03871660009081526005602052604090205460ff16610eb95760405162461bcd60e51b815260040161062d90612f76565b6001600160a01b03861660009081526005602052604090205460ff16610ef15760405162461bcd60e51b815260040161062d90612cfe565b336000908152600260205260409020610f0a9082611971565b50604080516080810182528a815260208082018b81526001600160a01b03808c168486019081528b82166060860190815260008881526003958690528790209551865592516001860155516002850180549183166001600160a01b0319928316179055915193909201805493831693909116929092179091559051636769401d60e11b81527f00000000000000000000000000000000000000000000000000000000000000009091169063ced2803a90610fd9903090634e61006360e01b908a908a908a908a90600401612a0c565b600060405180830381600087803b158015610ff357600080fd5b505af1158015611007573d6000803e3d6000fd5b50506040518392503391507f2f4b7a1b5841e13691dbdecd53f60d3a3581dcc59d258f97ca5475695392182590600090a3505050505050505050565b670de0b6b3a764000081565b60008060008061105e8561144a565b93509350935093509193509193565b3360009081526002602052604090206110869082611432565b6110a25760405162461bcd60e51b815260040161062d90612e42565b3360009081526002602052604090206110bb908261143e565b506000818152600360208190526040808320838155600181018490556002810180546001600160a01b03199081169091559201805490921690915551829133917f330aa8738700fa7a2197e20cc3a7c79315f5f0fddbff6d16b627350d12073c979190a350565b7f000000000000000000000000000000000000000000000000000000000000000081565b60056020526000908152604090205460ff1681565b7f000000000000000000000000000000000000000000000000000000000000000081565b61118761142e565b6001600160a01b0316611198610d5c565b6001600160a01b0316146111be5760405162461bcd60e51b815260040161062d90612e0d565b6001600160a01b0381166111e45760405162461bcd60e51b815260040161062d90612b96565b6111ed8161191f565b50565b6111f8612338565b5060009081526003602081815260409283902083516080810185528154815260018201549281019290925260028101546001600160a01b039081169483019490945290910154909116606082015290565b80516020808301516040840151805191929091600091829182916112739186018101908601612467565b9250925092506000826001600160a01b03166370a08231306040518263ffffffff1660e01b81526004016112a791906129ba565b60206040518083038186803b1580156112bf57600080fd5b505afa1580156112d3573d6000803e3d6000fd5b505050506040513d601f19601f820116820180604052508101906112f79190612831565b905061130484848461197d565b600081846001600160a01b03166370a08231306040518263ffffffff1660e01b815260040161133391906129ba565b60206040518083038186803b15801561134b57600080fd5b505afa15801561135f573d6000803e3d6000fd5b505050506040513d601f19601f820116820180604052508101906113839190612831565b61138d919061310e565b905061139f8860600151858984611c27565b50506000612710600154836113b491906130ef565b6113be91906130cf565b90506000896113cd83856130b7565b6113d791906130b7565b90506113e98860400151883084611cb9565b611414857f000000000000000000000000000000000000000000000000000000000000000084611d7d565b610af18589604001518c8661142991906130b7565b611dd8565b3390565b6000610b638383611def565b6000610b638383611e07565b60008060008060007f00000000000000000000000000000000000000000000000000000000000000006001600160a01b0316635ec88c79876040518263ffffffff1660e01b815260040161149e91906129ba565b60606040518083038186803b1580156114b657600080fd5b505afa1580156114ca573d6000803e3d6000fd5b505050506040513d601f19601f820116820180604052508101906114ee91906128e9565b5091505060007f00000000000000000000000000000000000000000000000000000000000000006001600160a01b031663abfceffc886040518263ffffffff1660e01b815260040161154091906129ba565b60006040518083038186803b15801561155857600080fd5b505afa15801561156c573d6000803e3d6000fd5b505050506040513d6000823e601f3d908101601f191682016040526115949190810190612699565b905061159e611f24565b815190935060005b818110156116cd5760008382815181106115d057634e487b7160e01b600052603260045260246000fd5b60200260200101516001600160a01b03166395dd91938b6040518263ffffffff1660e01b815260040161160391906129ba565b60206040518083038186803b15801561161b57600080fd5b505afa15801561162f573d6000803e3d6000fd5b505050506040513d601f19601f820116820180604052508101906116539190612831565b905080156116ba57600061168d85848151811061168057634e487b7160e01b600052603260045260246000fd5b602002602001015161170e565b9050670de0b6b3a76400006116a282846130ef565b6116ac91906130cf565b6116b6908a6130b7565b9850505b50806116c581613151565b9150506115a6565b50670de0b6b3a764000090506116e384846130ef565b6116ed91906130cf565b6116f790866130b7565b95506117038686611ff7565b935050509193509193565b60405163fc57d4df60e01b81526000906001600160a01b037f0000000000000000000000000000000000000000000000000000000000000000169063fc57d4df9061175d9085906004016129ba565b60206040518083038186803b15801561177557600080fd5b505afa158015611789573d6000803e3d6000fd5b505050506040513d601f19601f82011682018060405250810190610b669190612831565b6000808260e001518361010001516127106117c891906130b7565b6117d291906130b7565b6117e290655af3107a40006130ef565b83606001516117f1919061310e565b670de0b6b3a76400008460a0015161180991906130ef565b8460c00151856060015161181d91906130ef565b611827919061310e565b61183191906130cf565b90508260400151670de0b6b3a76400008460800151670de0b6b3a76400008461185a91906130ef565b61186491906130cf565b61186e91906130ef565b61187891906130cf565b9392505050565b836001600160a01b031663e0232b42848487856040516020016118a3929190612a5e565b6040516020818303038152906040526040518463ffffffff1660e01b81526004016118d093929190612aca565b600060405180830381600087803b1580156118ea57600080fd5b505af11580156118fe573d6000803e3d6000fd5b5050505050505050565b6000610b638383612023565b6000610b668261205b565b600480546001600160a01b038381166001600160a01b0319831681179093556040519116919082907f8be0079c531659141344cd1fd0a4f28419497f9722a3daafe3b4186f6b6457e090600090a35050565b6000610b63838361205f565b6060600061198d426103846130b7565b905060007f00000000000000000000000000000000000000000000000000000000000000006001600160a01b031663ad5c46486040518163ffffffff1660e01b815260040160206040518083038186803b1580156119ea57600080fd5b505afa1580156119fe573d6000803e3d6000fd5b505050506040513d601f19601f82011682018060405250810190611a22919061244b565b9050806001600160a01b0316856001600160a01b03161415611a4357611c1f565b806001600160a01b0316866001600160a01b03161415611a6257611c1f565b6040805160038082526080820190925290602082016060803683370190505092508583600081518110611aa557634e487b7160e01b600052603260045260246000fd5b60200260200101906001600160a01b031690816001600160a01b0316815250508083600181518110611ae757634e487b7160e01b600052603260045260246000fd5b60200260200101906001600160a01b031690816001600160a01b0316815250508483600281518110611b2957634e487b7160e01b600052603260045260246000fd5b60200260200101906001600160a01b031690816001600160a01b031681525050611b74867f000000000000000000000000000000000000000000000000000000000000000086611dd8565b6040516338ed173960e01b81526001600160a01b037f000000000000000000000000000000000000000000000000000000000000000016906338ed173990611bc9908790600190889030908990600401612fbb565b600060405180830381600087803b158015611be357600080fd5b505af1158015611bf7573d6000803e3d6000fd5b505050506040513d6000823e601f3d908101601f191682016040526106409190810190612737565b505050505050565b611c32838583611dd8565b6040516304c11f0360e31b81526001600160a01b03851690632608f81890611c609085908590600401612ab1565b602060405180830381600087803b158015611c7a57600080fd5b505af1158015611c8e573d6000803e3d6000fd5b505050506040513d601f19601f82011682018060405250810190611cb29190612831565b5050505050565b611d51848484876001600160a01b031663182df0f56040518163ffffffff1660e01b815260040160206040518083038186803b158015611cf857600080fd5b505afa158015611d0c573d6000803e3d6000fd5b505050506040513d601f19601f82011682018060405250810190611d309190612831565b611d42670de0b6b3a7640000876130ef565b611d4c91906130cf565b6120a9565b60405163852a12e360e01b81526001600160a01b0385169063852a12e390611c60908490600401612b4c565b611dd38363a9059cbb60e01b8484604051602401611d9c929190612ab1565b60408051601f198184030181529190526020810180516001600160e01b03166001600160e01b0319909316929092179091526120d0565b505050565b611de48383600061215f565b611dd383838361215f565b60009081526001919091016020526040902054151590565b60008181526001830160205260408120548015611f1a576000611e2b60018361310e565b8554909150600090611e3f9060019061310e565b9050818114611ec0576000866000018281548110611e6d57634e487b7160e01b600052603260045260246000fd5b9060005260206000200154905080876000018481548110611e9e57634e487b7160e01b600052603260045260246000fd5b6000918252602080832090910192909255918252600188019052604090208390555b8554869080611edf57634e487b7160e01b600052603160045260246000fd5b600190038181906000526020600020016000905590558560010160008681526020019081526020016000206000905560019350505050610b66565b6000915050610b66565b600064e8d4a510007f00000000000000000000000000000000000000000000000000000000000000006001600160a01b031663fc57d4df7f00000000000000000000000000000000000000000000000000000000000000006040518263ffffffff1660e01b8152600401611f9891906129ba565b60206040518083038186803b158015611fb057600080fd5b505afa158015611fc4573d6000803e3d6000fd5b505050506040513d601f19601f82011682018060405250810190611fe89190612831565b611ff291906130cf565b905090565b60008161200657506000610b66565b81612019670de0b6b3a7640000856130ef565b610b6391906130cf565b600082600001828154811061204857634e487b7160e01b600052603260045260246000fd5b9060005260206000200154905092915050565b5490565b600061206b8383611def565b6120a157508154600181810184556000848152602080822090930184905584548482528286019093526040902091909155610b66565b506000610b66565b6120ca846323b872dd60e01b858585604051602401611d9c939291906129e8565b50505050565b6000612125826040518060400160405280602081526020017f5361666545524332303a206c6f772d6c6576656c2063616c6c206661696c6564815250856001600160a01b03166122229092919063ffffffff16565b805190915015611dd3578080602001905181019061214391906127bb565b611dd35760405162461bcd60e51b815260040161062d90612ed6565b8015806121e75750604051636eb1769f60e11b81526001600160a01b0384169063dd62ed3e9061219590309086906004016129ce565b60206040518083038186803b1580156121ad57600080fd5b505afa1580156121c1573d6000803e3d6000fd5b505050506040513d601f19601f820116820180604052508101906121e59190612831565b155b6122035760405162461bcd60e51b815260040161062d90612f20565b611dd38363095ea7b360e01b8484604051602401611d9c929190612ab1565b60606122318484600085612239565b949350505050565b60608247101561225b5760405162461bcd60e51b815260040161062d90612cb8565b612264856122f9565b6122805760405162461bcd60e51b815260040161062d90612e9f565b600080866001600160a01b0316858760405161229c919061299e565b60006040518083038185875af1925050503d80600081146122d9576040519150601f19603f3d011682016040523d82523d6000602084013e6122de565b606091505b50915091506122ee8282866122ff565b979650505050505050565b3b151590565b6060831561230e575081611878565b82511561231e5782518084602001fd5b8160405162461bcd60e51b815260040161062d9190612b55565b6040518060800160405280600081526020016000815260200160006001600160a01b0316815260200160006001600160a01b031681525090565b8035610cc481613198565b60008083601f84011261238e578182fd5b50813567ffffffffffffffff8111156123a5578182fd5b6020830191508360208285010111156123bd57600080fd5b9250929050565b600082601f8301126123d4578081fd5b813567ffffffffffffffff8111156123ee576123ee613182565b612401601f8201601f1916602001613069565b818152846020838601011115612415578283fd5b816020850160208301379081016020019190915292915050565b600060208284031215612440578081fd5b813561187881613198565b60006020828403121561245c578081fd5b815161187881613198565b60008060006060848603121561247b578182fd5b835161248681613198565b602085015190935061249781613198565b80925050604084015190509250925092565b60008060408084860312156124bc578283fd5b83356124c781613198565b9250602084013567ffffffffffffffff808211156124e3578384fd5b9085019081870360c08112156124f7578485fd5b835160608101818110848211171561251157612511613182565b8086526080831215612521578687fd5b60e082019250808310848411171561253b5761253b613182565b9185528335825260208401356080820152838501359161255a83613198565b8260a08301526060850135925061257083613198565b60c08201839052815261258560808501612372565b602082015260a084013591508282111561259d578586fd5b6125a9898386016123c4565b8582015280955050505050509250929050565b600080604083850312156125ce578182fd5b82356125d981613198565b915060208301356125e981613198565b809150509250929050565b60008060008060008060a0878903121561260c578384fd5b863561261781613198565b9550602087013561262781613198565b94506040870135935060608701359250608087013567ffffffffffffffff811115612650578283fd5b61265c89828a0161237d565b979a9699509497509295939492505050565b60008060408385031215612680578182fd5b823561268b81613198565b946020939093013593505050565b600060208083850312156126ab578182fd5b825167ffffffffffffffff8111156126c1578283fd5b8301601f810185136126d1578283fd5b80516126e46126df82613093565b613069565b8181528381019083850185840285018601891015612700578687fd5b8694505b8385101561272b57805161271781613198565b835260019490940193918501918501612704565b50979650505050505050565b60006020808385031215612749578182fd5b825167ffffffffffffffff81111561275f578283fd5b8301601f8101851361276f578283fd5b805161277d6126df82613093565b8181528381019083850185840285018601891015612799578687fd5b8694505b8385101561272b57805183526001949094019391850191850161279d565b6000602082840312156127cc578081fd5b8151611878816131ad565b6000806000606084860312156127eb578081fd5b83516127f6816131ad565b60208501516040860151919450925061280e816131ad565b809150509250925092565b60006020828403121561282a578081fd5b5035919050565b600060208284031215612842578081fd5b5051919050565b60008060008060008060008060e0898b031215612864578586fd5b8835975060208901359650604089013561287d81613198565b9550606089013561288d81613198565b9450608089013561289d81613198565b935060a089013567ffffffffffffffff8111156128b8578283fd5b6128c48b828c0161237d565b90945092505060c08901356128d8816131ad565b809150509295985092959890939650565b6000806000606084860312156128fd578081fd5b8351925060208401519150604084015190509250925092565b60008284528282602086013780602084860101526020601f19601f85011685010190509392505050565b60008151808452612958816020860160208601613125565b601f01601f19169290920160200192915050565b80518252602080820151908301526040808201516001600160a01b039081169184019190915260609182015116910152565b600082516129b0818460208701613125565b9190910192915050565b6001600160a01b0391909116815260200190565b6001600160a01b0392831681529116602082015260400190565b6001600160a01b039384168152919092166020820152604081019190915260600190565b6001600160a01b0387811682526001600160e01b0319871660208301528516604082015260a060608201819052600090612a499083018587612916565b90508215156080830152979650505050505050565b600060018060a01b03808516835260406020840152612a8160408401855161296c565b8060208501511660c084015250604083015160c060e0840152612aa8610100840182612940565b95945050505050565b6001600160a01b03929092168252602082015260400190565b600060018060a01b038516825283602083015260606040830152612aa86060830184612940565b6001600160a01b038881168252602082018890526040820187905285811660608301528416608082015260c060a08201819052600090612b349083018486612916565b9998505050505050505050565b901515815260200190565b90815260200190565b600060208252610b636020830184612940565b602080825260149082015273636f6c6c61746572616c2d646562742d73616d6560601b604082015260600190565b60208082526026908201527f4f776e61626c653a206e6577206f776e657220697320746865207a65726f206160408201526564647265737360d01b606082015260800190565b6020808252601a908201527f616c72656164792d737461727465642d70726f74656374696f6e000000000000604082015260600190565b60208082526017908201527f506f6b654d6552656164793a206f6e6c79506f6b654d65000000000000000000604082015260600190565b6020808252601b908201527f616d6f756e742d746f2d666c6173682d626f72726f772d7a65726f0000000000604082015260600190565b6020808252601b908201527f696e76616c69642d6865616c74682d666163746f722d696e7075740000000000604082015260600190565b60208082526026908201527f416464726573733a20696e73756666696369656e742062616c616e636520666f6040820152651c8818d85b1b60d21b606082015260800190565b6020808252601690820152751919589d0b5d1bdad95b8b5b9bdd0b585b1b1bddd95960521b604082015260600190565b60208082526021908201527f6865616c74682d666163746f722d6e6f742d756e6465722d7468726573686f6c6040820152601960fa1b606082015260800190565b60208082526019908201527f6865616c74682d666163746f722d737461792d756e7361666500000000000000604082015260600190565b6020808252601e908201527f666c6173686c6f616e2d63616c6c6261636b2d6f6e6c792d63546f6b656e0000604082015260600190565b602080825260169082015275636f6c6c61746572616c2d666163746f722d7a65726f60501b604082015260600190565b6020808252818101527f4f776e61626c653a2063616c6c6572206973206e6f7420746865206f776e6572604082015260600190565b6020808252601490820152731c1c9bdd1958dd1a5bdb8b5b9bdd0b599bdd5b9960621b604082015260600190565b602080825260159082015274636f6c6c61746572616c2d70726963652d7a65726f60581b604082015260600190565b6020808252601d908201527f416464726573733a2063616c6c20746f206e6f6e2d636f6e7472616374000000604082015260600190565b6020808252602a908201527f5361666545524332303a204552433230206f7065726174696f6e20646964206e6040820152691bdd081cdd58d8d9595960b21b606082015260800190565b60208082526036908201527f5361666545524332303a20617070726f76652066726f6d206e6f6e2d7a65726f60408201527520746f206e6f6e2d7a65726f20616c6c6f77616e636560501b606082015260800190565b6020808252601c908201527f636f6c6c61746572616c2d746f6b656e2d6e6f742d616c6c6f77656400000000604082015260600190565b60808101610b66828461296c565b600060a082018783526020878185015260a0604085015281875180845260c0860191508289019350845b8181101561300a5784516001600160a01b031683529383019391830191600101612fe5565b50506001600160a01b03969096166060850152505050608001529392505050565b93845260208401929092526040830152606082015260800190565b948552602085019390935260408401919091526060830152608082015260a00190565b60405181810167ffffffffffffffff8111828210171561308b5761308b613182565b604052919050565b600067ffffffffffffffff8211156130ad576130ad613182565b5060209081020190565b600082198211156130ca576130ca61316c565b500190565b6000826130ea57634e487b7160e01b81526012600452602481fd5b500490565b60008160001904831182151516156131095761310961316c565b500290565b6000828210156131205761312061316c565b500390565b60005b83811015613140578181015183820152602001613128565b838111156120ca5750506000910152565b60006000198214156131655761316561316c565b5060010190565b634e487b7160e01b600052601160045260246000fd5b634e487b7160e01b600052604160045260246000fd5b6001600160a01b03811681146111ed57600080fd5b80151581146111ed57600080fdfea26469706673582212201130bba509038e12f22cd21fa0d621f485746cb73d3b7f10ac751d69f183059464736f6c63430008000033",
  "linkReferences": {},
  "deployedLinkReferences": {}
}