{
  "_format": "hh-sol-artifact-1",
  "contractName": "CreamLoanSaverServiceTest",
  "sourceName": "contracts/test/CreamLoanSaverServiceTest.sol",
  "abi": [
    {
      "inputs": [
        {
          "internalType": "address payable",
          "name": "_pokeMe",
          "type": "address"
        },
        {
          "internalType": "address",
          "name": "_cusdcAddress",
          "type": "address"
        },
        {
          "internalType": "address",
          "name": "_gelato",
          "type": "address"
        },
        {
          "internalType": "contract IComptroller",
          "name": "_comptroller",
          "type": "address"
        },
        {
          "internalType": "contract IUniswapV2Router02",
          "name": "_uniswapRouter",
          "type": "address"
        },
        {
          "internalType": "contract IPriceOracle",
          "name": "_oracle",
          "type": "address"
        }
      ],
      "stateMutability": "nonpayable",
      "type": "constructor"
    },
    {
      "anonymous": false,
      "inputs": [
        {
          "indexed": true,
          "internalType": "address",
          "name": "previousOwner",
          "type": "address"
        },
        {
          "indexed": true,
          "internalType": "address",
          "name": "newOwner",
          "type": "address"
        }
      ],
      "name": "OwnershipTransferred",
      "type": "event"
    },
    {
      "anonymous": false,
      "inputs": [
        {
          "indexed": true,
          "internalType": "address",
          "name": "account",
          "type": "address"
        },
        {
          "indexed": true,
          "internalType": "bytes32",
          "name": "protectionId",
          "type": "bytes32"
        }
      ],
      "name": "ProtectionCanceled",
      "type": "event"
    },
    {
      "anonymous": false,
      "inputs": [
        {
          "indexed": true,
          "internalType": "address",
          "name": "account",
          "type": "address"
        },
        {
          "indexed": true,
          "internalType": "bytes32",
          "name": "protectionId",
          "type": "bytes32"
        }
      ],
      "name": "ProtectionSubmitted",
      "type": "event"
    },
    {
      "inputs": [],
      "name": "CUSDC_ADDRESS",
      "outputs": [
        {
          "internalType": "address",
          "name": "",
          "type": "address"
        }
      ],
      "stateMutability": "view",
      "type": "function"
    },
    {
      "inputs": [],
      "name": "EXP_SCALE",
      "outputs": [
        {
          "internalType": "uint256",
          "name": "",
          "type": "uint256"
        }
      ],
      "stateMutability": "view",
      "type": "function"
    },
    {
      "inputs": [],
      "name": "GELATO",
      "outputs": [
        {
          "internalType": "address",
          "name": "",
          "type": "address"
        }
      ],
      "stateMutability": "view",
      "type": "function"
    },
    {
      "inputs": [
        {
          "internalType": "contract CTokenInterface",
          "name": "cToken",
          "type": "address"
        }
      ],
      "name": "addTokenToWhiteList",
      "outputs": [],
      "stateMutability": "nonpayable",
      "type": "function"
    },
    {
      "inputs": [
        {
          "components": [
            {
              "internalType": "contract CTokenInterface",
              "name": "colToken",
              "type": "address"
            },
            {
              "internalType": "contract CTokenInterface",
              "name": "debtToken",
              "type": "address"
            },
            {
              "internalType": "uint256",
              "name": "ethPerColToken",
              "type": "uint256"
            },
            {
              "internalType": "uint256",
              "name": "wantedHealthFactor",
              "type": "uint256"
            },
            {
              "internalType": "uint256",
              "name": "colFactor",
              "type": "uint256"
            },
            {
              "internalType": "uint256",
              "name": "totalCollateralInEth",
              "type": "uint256"
            },
            {
              "internalType": "uint256",
              "name": "totalBorrowInEth",
              "type": "uint256"
            },
            {
              "internalType": "uint256",
              "name": "protectionFeeBps",
              "type": "uint256"
            },
            {
              "internalType": "uint256",
              "name": "flashLoanFeeBps",
              "type": "uint256"
            }
          ],
          "internalType": "struct CreamLoanSaver.ProtectionDataCompute",
          "name": "_protectionDataCompute",
          "type": "tuple"
        }
      ],
      "name": "calculateColAmtToBorrow",
      "outputs": [
        {
          "internalType": "uint256",
          "name": "",
          "type": "uint256"
        }
      ],
      "stateMutability": "view",
      "type": "function"
    },
    {
      "inputs": [
        {
          "internalType": "bytes32",
          "name": "protectionId",
          "type": "bytes32"
        }
      ],
      "name": "cancelProtection",
      "outputs": [],
      "stateMutability": "nonpayable",
      "type": "function"
    },
    {
      "inputs": [],
      "name": "comptroller",
      "outputs": [
        {
          "internalType": "contract IComptroller",
          "name": "",
          "type": "address"
        }
      ],
      "stateMutability": "view",
      "type": "function"
    },
    {
      "inputs": [
        {
          "internalType": "address",
          "name": "sender",
          "type": "address"
        },
        {
          "internalType": "address",
          "name": "",
          "type": "address"
        },
        {
          "internalType": "uint256",
          "name": "",
          "type": "uint256"
        },
        {
          "internalType": "uint256",
          "name": "premiums",
          "type": "uint256"
        },
        {
          "internalType": "bytes",
          "name": "params",
          "type": "bytes"
        }
      ],
      "name": "executeOperation",
      "outputs": [],
      "stateMutability": "nonpayable",
      "type": "function"
    },
    {
      "inputs": [],
      "name": "flashFeeBps",
      "outputs": [
        {
          "internalType": "uint256",
          "name": "",
          "type": "uint256"
        }
      ],
      "stateMutability": "view",
      "type": "function"
    },
    {
      "inputs": [
        {
          "internalType": "contract ICTokenFlashLoan",
          "name": "flashLender",
          "type": "address"
        },
        {
          "internalType": "address",
          "name": "receiver",
          "type": "address"
        },
        {
          "internalType": "uint256",
          "name": "amount",
          "type": "uint256"
        },
        {
          "components": [
            {
              "components": [
                {
                  "internalType": "uint256",
                  "name": "thresholdHealthFactor",
                  "type": "uint256"
                },
                {
                  "internalType": "uint256",
                  "name": "wantedHealthFactor",
                  "type": "uint256"
                },
                {
                  "internalType": "contract CTokenInterface",
                  "name": "colToken",
                  "type": "address"
                },
                {
                  "internalType": "contract CTokenInterface",
                  "name": "debtToken",
                  "type": "address"
                }
              ],
              "internalType": "struct CreamLoanSaver.ProtectionData",
              "name": "protectionData",
              "type": "tuple"
            },
            {
              "internalType": "address",
              "name": "borrower",
              "type": "address"
            },
            {
              "internalType": "bytes",
              "name": "swapData",
              "type": "bytes"
            }
          ],
          "internalType": "struct CreamLoanSaver.FlashLoanData",
          "name": "flashLoanData",
          "type": "tuple"
        }
      ],
      "name": "flashLoan",
      "outputs": [],
      "stateMutability": "nonpayable",
      "type": "function"
    },
    {
      "inputs": [
        {
          "internalType": "address",
          "name": "account",
          "type": "address"
        }
      ],
      "name": "getUserAccountData",
      "outputs": [
        {
          "internalType": "uint256",
          "name": "totalCollateralInEth",
          "type": "uint256"
        },
        {
          "internalType": "uint256",
          "name": "totalBorrowInEth",
          "type": "uint256"
        },
        {
          "internalType": "uint256",
          "name": "healthFactor",
          "type": "uint256"
        },
        {
          "internalType": "uint256",
          "name": "ethPerUsd",
          "type": "uint256"
        }
      ],
      "stateMutability": "view",
      "type": "function"
    },
    {
      "inputs": [
        {
          "internalType": "address",
          "name": "account",
          "type": "address"
        },
        {
          "internalType": "uint256",
          "name": "index",
          "type": "uint256"
        }
      ],
      "name": "getUserProtectionAt",
      "outputs": [
        {
          "internalType": "bytes32",
          "name": "protectionId",
          "type": "bytes32"
        }
      ],
      "stateMutability": "view",
      "type": "function"
    },
    {
      "inputs": [
        {
          "internalType": "bytes32",
          "name": "id",
          "type": "bytes32"
        }
      ],
      "name": "getUserProtectionData",
      "outputs": [
        {
          "components": [
            {
              "internalType": "uint256",
              "name": "thresholdHealthFactor",
              "type": "uint256"
            },
            {
              "internalType": "uint256",
              "name": "wantedHealthFactor",
              "type": "uint256"
            },
            {
              "internalType": "contract CTokenInterface",
              "name": "colToken",
              "type": "address"
            },
            {
              "internalType": "contract CTokenInterface",
              "name": "debtToken",
              "type": "address"
            }
          ],
          "internalType": "struct CreamLoanSaver.ProtectionData",
          "name": "",
          "type": "tuple"
        }
      ],
      "stateMutability": "view",
      "type": "function"
    },
    {
      "inputs": [
        {
          "internalType": "address",
          "name": "asset",
          "type": "address"
        },
        {
          "internalType": "address",
          "name": "account",
          "type": "address"
        }
      ],
      "name": "getUserReserveData",
      "outputs": [
        {
          "internalType": "uint256",
          "name": "balanceUnderlying",
          "type": "uint256"
        },
        {
          "internalType": "uint256",
          "name": "debtUnderlying",
          "type": "uint256"
        },
        {
          "internalType": "uint256",
          "name": "exchangeRateStored",
          "type": "uint256"
        },
        {
          "internalType": "uint256",
          "name": "borrowRatePerBlock",
          "type": "uint256"
        },
        {
          "internalType": "uint256",
          "name": "supplyRatePerBlock",
          "type": "uint256"
        }
      ],
      "stateMutability": "view",
      "type": "function"
    },
    {
      "inputs": [
        {
          "internalType": "address",
          "name": "account",
          "type": "address"
        }
      ],
      "name": "isUnderThresholdHealthFactor",
      "outputs": [
        {
          "internalType": "bool",
          "name": "",
          "type": "bool"
        }
      ],
      "stateMutability": "view",
      "type": "function"
    },
    {
      "inputs": [],
      "name": "oracle",
      "outputs": [
        {
          "internalType": "contract IPriceOracle",
          "name": "",
          "type": "address"
        }
      ],
      "stateMutability": "view",
      "type": "function"
    },
    {
      "inputs": [],
      "name": "owner",
      "outputs": [
        {
          "internalType": "address",
          "name": "",
          "type": "address"
        }
      ],
      "stateMutability": "view",
      "type": "function"
    },
    {
      "inputs": [
        {
          "internalType": "contract CTokenInterface",
          "name": "debtToken",
          "type": "address"
        },
        {
          "internalType": "contract IERC20",
          "name": "uDebtToken",
          "type": "address"
        },
        {
          "internalType": "address",
          "name": "borrower",
          "type": "address"
        },
        {
          "internalType": "uint256",
          "name": "debtToRepay",
          "type": "uint256"
        }
      ],
      "name": "paybackToCToken",
      "outputs": [],
      "stateMutability": "nonpayable",
      "type": "function"
    },
    {
      "inputs": [],
      "name": "pokeMe",
      "outputs": [
        {
          "internalType": "address payable",
          "name": "",
          "type": "address"
        }
      ],
      "stateMutability": "view",
      "type": "function"
    },
    {
      "inputs": [],
      "name": "protectionFeeBps",
      "outputs": [
        {
          "internalType": "uint256",
          "name": "",
          "type": "uint256"
        }
      ],
      "stateMutability": "view",
      "type": "function"
    },
    {
      "inputs": [
        {
          "internalType": "contract CTokenInterface",
          "name": "cToken",
          "type": "address"
        }
      ],
      "name": "removeTokenFromWhiteList",
      "outputs": [],
      "stateMutability": "nonpayable",
      "type": "function"
    },
    {
      "inputs": [],
      "name": "renounceOwnership",
      "outputs": [],
      "stateMutability": "nonpayable",
      "type": "function"
    },
    {
      "inputs": [
        {
          "internalType": "address",
          "name": "account",
          "type": "address"
        },
        {
          "internalType": "bytes32",
          "name": "protectionId",
          "type": "bytes32"
        }
      ],
      "name": "saveLoan",
      "outputs": [],
      "stateMutability": "nonpayable",
      "type": "function"
    },
    {
      "inputs": [
        {
          "internalType": "uint256",
          "name": "_flashFeeBps",
          "type": "uint256"
        }
      ],
      "name": "setFlashFeeBps",
      "outputs": [],
      "stateMutability": "nonpayable",
      "type": "function"
    },
    {
      "inputs": [
        {
          "internalType": "uint256",
          "name": "_protectionFeeBps",
          "type": "uint256"
        }
      ],
      "name": "setProtectionFeeBps",
      "outputs": [],
      "stateMutability": "nonpayable",
      "type": "function"
    },
    {
      "inputs": [
        {
          "internalType": "uint256",
          "name": "thresholdHealthFactor",
          "type": "uint256"
        },
        {
          "internalType": "uint256",
          "name": "wantedHealthFactor",
          "type": "uint256"
        },
        {
          "internalType": "contract CTokenInterface",
          "name": "colToken",
          "type": "address"
        },
        {
          "internalType": "contract CTokenInterface",
          "name": "debtToken",
          "type": "address"
        },
        {
          "internalType": "address",
          "name": "_resolverAddress",
          "type": "address"
        },
        {
          "internalType": "bytes",
          "name": "_resolverData",
          "type": "bytes"
        },
        {
          "internalType": "bool",
          "name": "_useTaskTreasuryFunds",
          "type": "bool"
        }
      ],
      "name": "submitProtection",
      "outputs": [],
      "stateMutability": "nonpayable",
      "type": "function"
    },
    {
      "inputs": [
        {
          "internalType": "address",
          "name": "tokenToSell",
          "type": "address"
        },
        {
          "internalType": "address",
          "name": "tokenToBuy",
          "type": "address"
        },
        {
          "internalType": "uint256",
          "name": "amountToSell",
          "type": "uint256"
        }
      ],
      "name": "swap",
      "outputs": [],
      "stateMutability": "nonpayable",
      "type": "function"
    },
    {
      "inputs": [
        {
          "internalType": "address",
          "name": "newOwner",
          "type": "address"
        }
      ],
      "name": "transferOwnership",
      "outputs": [],
      "stateMutability": "nonpayable",
      "type": "function"
    },
    {
      "inputs": [],
      "name": "uniswapRouter",
      "outputs": [
        {
          "internalType": "contract IUniswapV2Router02",
          "name": "",
          "type": "address"
        }
      ],
      "stateMutability": "view",
      "type": "function"
    },
    {
      "inputs": [
        {
          "internalType": "address",
          "name": "",
          "type": "address"
        }
      ],
      "name": "whiteListedTokens",
      "outputs": [
        {
          "internalType": "bool",
          "name": "",
          "type": "bool"
        }
      ],
      "stateMutability": "view",
      "type": "function"
    },
    {
      "inputs": [
        {
          "internalType": "contract CTokenInterface",
          "name": "colToken",
          "type": "address"
        },
        {
          "internalType": "address",
          "name": "onBehalf",
          "type": "address"
        },
        {
          "internalType": "address",
          "name": "to",
          "type": "address"
        },
        {
          "internalType": "uint256",
          "name": "amountToWithdraw",
          "type": "uint256"
        }
      ],
      "name": "withdrawCollateral",
      "outputs": [],
      "stateMutability": "nonpayable",
      "type": "function"
    }
  ],
  "bytecode": "0x6101406040523480156200001257600080fd5b50604051620036e3380380620036e38339810160408190526200003591620000f3565b6001600160601b0319606087811b821660805284811b821660a05286811b82166101005285811b82166101205283811b821660c05282901b1660e0528585858585856200008b620000856200009d565b620000a1565b5050505050505050505050506200019f565b3390565b600480546001600160a01b038381166001600160a01b0319831681179093556040519116919082907f8be0079c531659141344cd1fd0a4f28419497f9722a3daafe3b4186f6b6457e090600090a35050565b60008060008060008060c087890312156200010c578182fd5b8651620001198162000186565b60208801519096506200012c8162000186565b60408801519095506200013f8162000186565b6060880151909450620001528162000186565b6080880151909350620001658162000186565b60a0880151909250620001788162000186565b809150509295509295509295565b6001600160a01b03811681146200019c57600080fd5b50565b60805160601c60a05160601c60c05160601c60e05160601c6101005160601c6101205160601c61348e620002556000396000818161125e01526115c2015260008181610c6d0152612059015260008181610e13015281816118fb015261202a015260008181610def01528181611bea01528181611da60152611de20152600081816108a401528181610c490152818161162701526116c901526000818161077d015281816110820152611215015261348e6000f3fe608060405234801561001057600080fd5b50600436106101e55760003560e01c8063735de9f71161010f578063bf92857c116100a2578063df791e5011610071578063df791e50146103d0578063eff557a7146103e3578063f2fde38b146103eb578063f97c9fe8146103fe576101e5565b8063bf92857c1461037f578063c45c73fd146103a2578063c84eee0d146103b5578063d3c26383146103bd576101e5565b806395122da2116100de57806395122da21461033e578063b0b4eecf14610351578063bb40eb3b14610364578063bbba205d14610377576101e5565b8063735de9f7146103135780637dc0d1d01461031b5780638da5cb5b1461032357806391bc0e181461032b576101e5565b8063594943221161018757806366dfd4891161015657806366dfd489146102d057806367a332ae146102d857806368d1c22d146102eb578063715018a61461030b576101e5565b8063594943221461028d57806359e1868a146102a05780635fe3b567146102b357806366408eb0146102c8576101e5565b8063405b019d116101c3578063405b019d1461023f57806342a7a669146102545780634e610063146102675780635820ba631461027a576101e5565b8063086d89f3146101ea57806328dd2d011461020857806335ac67e71461022c575b600080fd5b6101f261041e565b6040516101ff9190612de9565b60405180910390f35b61021b6102163660046126d3565b610424565b6040516101ff9594939291906132e3565b6101f261023a366004612a42565b610691565b61025261024d36600461274b565b6106a4565b005b61025261026236600461260b565b610712565b6102526102753660046127c5565b610772565b610252610288366004612988565b610bc6565b61025261029b366004612970565b610bd8565b6101f26102ae3660046127c5565b610c1c565b6102bb610c47565b6040516101ff9190612c57565b6102bb610c6b565b6101f2610c8f565b6102526102e636600461260b565b610c95565b6102fe6102f936600461260b565b610cf8565b6040516101ff9190612dde565b610252610da2565b6102bb610ded565b6102bb610e11565b6102bb610e35565b6102526103393660046129d8565b610e44565b61025261034c366004612970565b610e50565b61025261035f366004612988565b610e94565b610252610372366004612ae6565b610ea0565b6101f2611134565b61039261038d36600461260b565b611140565b6040516101ff94939291906132c8565b6102526103b0366004612970565b61115e565b6102bb611213565b6102fe6103cb36600461260b565b611237565b6102526103de36600461270b565b61124c565b6102bb61125c565b6102526103f936600461260b565b611280565b61041161040c366004612970565b6112f1565b6040516101ff919061324a565b60015481565b600080600080600080879050806001600160a01b0316633af9e669886040518263ffffffff1660e01b815260040161045c9190612c57565b60206040518083038186803b15801561047457600080fd5b505afa158015610488573d6000803e3d6000fd5b505050506040513d601f19601f820116820180604052508101906104ac9190612ace565b6040516395dd919360e01b81529096506001600160a01b038216906395dd9193906104db908a90600401612c57565b60206040518083038186803b1580156104f357600080fd5b505afa158015610507573d6000803e3d6000fd5b505050506040513d601f19601f8201168201806040525081019061052b9190612ace565b9450806001600160a01b031663182df0f56040518163ffffffff1660e01b815260040160206040518083038186803b15801561056657600080fd5b505afa15801561057a573d6000803e3d6000fd5b505050506040513d601f19601f8201168201806040525081019061059e9190612ace565b9350806001600160a01b031663f8f9da286040518163ffffffff1660e01b815260040160206040518083038186803b1580156105d957600080fd5b505afa1580156105ed573d6000803e3d6000fd5b505050506040513d601f19601f820116820180604052508101906106119190612ace565b9250806001600160a01b031663ae9d70b06040518163ffffffff1660e01b815260040160206040518083038186803b15801561064c57600080fd5b505afa158015610660573d6000803e3d6000fd5b505050506040513d601f19601f820116820180604052508101906106849190612ace565b9150509295509295909350565b600061069c8261134a565b90505b919050565b60006106b282840184612685565b915050306001600160a01b0388161480156106da57508051604001516001600160a01b031633145b6106ff5760405162461bcd60e51b81526004016106f690613043565b60405180910390fd5b610709848261141c565b50505050505050565b61071a611601565b6001600160a01b031661072b610e35565b6001600160a01b0316146107515760405162461bcd60e51b81526004016106f6906130aa565b6001600160a01b03166000908152600560205260409020805460ff19169055565b336001600160a01b037f000000000000000000000000000000000000000000000000000000000000000016146107ba5760405162461bcd60e51b81526004016106f690612eb0565b6001600160a01b03821660009081526002602052604090206107dc9082611605565b6107f85760405162461bcd60e51b81526004016106f6906130df565b60008181526003602081815260408084208151608081018352815481526001820154818501526002808301546001600160a01b03908116838601529290950154821660608201529087168552929091529091206108559083611611565b5060008281526003602081905260408220828155600181018390556002810180546001600160a01b031990811690915591018054909116905580806108998661161d565b5092509250925060007f00000000000000000000000000000000000000000000000000000000000000006001600160a01b0316638e8f294b86604001516040518263ffffffff1660e01b81526004016108f29190612c57565b60606040518083038186803b15801561090a57600080fd5b505afa15801561091e573d6000803e3d6000fd5b505050506040513d601f19601f82011682018060405250810190610942919061292e565b50915050600061095586604001516118e1565b9050600082116109775760405162461bcd60e51b81526004016106f69061307a565b855183106109975760405162461bcd60e51b81526004016106f690612fcb565b600081116109b75760405162461bcd60e51b81526004016106f69061310d565b6000610a2360405180610120016040528089604001516001600160a01b0316815260200189606001516001600160a01b0316815260200184815260200189602001518152602001858152602001888152602001878152602001600154815260200160005481525061134a565b905060008111610a455760405162461bcd60e51b81526004016106f690612ee7565b600087604001516001600160a01b0316636f307dc36040518163ffffffff1660e01b815260040160206040518083038186803b158015610a8457600080fd5b505afa158015610a98573d6000803e3d6000fd5b505050506040513d601f19601f82011682018060405250810190610abc9190612627565b88606001516001600160a01b0316636f307dc36040518163ffffffff1660e01b815260040160206040518083038186803b158015610af957600080fd5b505afa158015610b0d573d6000803e3d6000fd5b505050506040513d601f19601f82011682018060405250810190610b319190612627565b83604051602001610b4493929190612c85565b6040516020818303038152906040529050610b888860400151308460405180606001604052808d81526020018f6001600160a01b0316815260200186815250611980565b610b918a61161d565b508a519097508711159150610bba90505760405162461bcd60e51b81526004016106f69061300c565b50505050505050505050565b610bd284848484611a09565b50505050565b610be0611601565b6001600160a01b0316610bf1610e35565b6001600160a01b031614610c175760405162461bcd60e51b81526004016106f6906130aa565b600055565b6001600160a01b0382166000908152600260205260408120610c3e9083611b26565b90505b92915050565b7f000000000000000000000000000000000000000000000000000000000000000081565b7f000000000000000000000000000000000000000000000000000000000000000081565b60005481565b610c9d611601565b6001600160a01b0316610cae610e35565b6001600160a01b031614610cd45760405162461bcd60e51b81526004016106f6906130aa565b6001600160a01b03166000908152600560205260409020805460ff19166001179055565b6001600160a01b038116600090815260026020526040812081908190610d1d90611b32565b90506000610d2a8561161d565b509250505060005b82811015610d96576001600160a01b0386166000908152600260205260409020610d5c9082611b26565b600081815260036020526040902054909450828110610d835760019550505050505061069f565b5080610d8e816133ee565b915050610d32565b50600095945050505050565b610daa611601565b6001600160a01b0316610dbb610e35565b6001600160a01b031614610de15760405162461bcd60e51b81526004016106f6906130aa565b610deb6000611b3d565b565b7f000000000000000000000000000000000000000000000000000000000000000081565b7f000000000000000000000000000000000000000000000000000000000000000081565b6004546001600160a01b031690565b610bd284848484611980565b610e58611601565b6001600160a01b0316610e69610e35565b6001600160a01b031614610e8f5760405162461bcd60e51b81526004016106f6906130aa565b600155565b610bd284848484611b8f565b600033898989898888604051602001610ebf9796959493929190612d8e565b60408051601f19818403018152918152815160209283012033600090815260029093529120909150610ef19082611605565b15610f0e5760405162461bcd60e51b81526004016106f690612e79565b8888118015610f245750670de0b6b3a764000089115b610f405760405162461bcd60e51b81526004016106f690612f1e565b856001600160a01b0316876001600160a01b03161415610f725760405162461bcd60e51b81526004016106f690612e05565b6001600160a01b03871660009081526005602052604090205460ff16610faa5760405162461bcd60e51b81526004016106f690613213565b6001600160a01b03861660009081526005602052604090205460ff16610fe25760405162461bcd60e51b81526004016106f690612f9b565b336000908152600260205260409020610ffb9082611bc8565b50604080516080810182528a815260208082018b81526001600160a01b03808c168486019081528b82166060860190815260008881526003958690528790209551865592516001860155516002850180549183166001600160a01b0319928316179055915193909201805493831693909116929092179091559051636769401d60e11b81527f00000000000000000000000000000000000000000000000000000000000000009091169063ced2803a906110ca903090634e61006360e01b908a908a908a908a90600401612ca9565b600060405180830381600087803b1580156110e457600080fd5b505af11580156110f8573d6000803e3d6000fd5b50506040518392503391507f2f4b7a1b5841e13691dbdecd53f60d3a3581dcc59d258f97ca5475695392182590600090a3505050505050505050565b670de0b6b3a764000081565b60008060008061114f8561161d565b93509350935093509193509193565b3360009081526002602052604090206111779082611605565b6111935760405162461bcd60e51b81526004016106f6906130df565b3360009081526002602052604090206111ac9082611611565b506000818152600360208190526040808320838155600181018490556002810180546001600160a01b03199081169091559201805490921690915551829133917f330aa8738700fa7a2197e20cc3a7c79315f5f0fddbff6d16b627350d12073c979190a350565b7f000000000000000000000000000000000000000000000000000000000000000081565b60056020526000908152604090205460ff1681565b611257838383611bd4565b505050565b7f000000000000000000000000000000000000000000000000000000000000000081565b611288611601565b6001600160a01b0316611299610e35565b6001600160a01b0316146112bf5760405162461bcd60e51b81526004016106f6906130aa565b6001600160a01b0381166112e55760405162461bcd60e51b81526004016106f690612e33565b6112ee81611b3d565b50565b6112f961242e565b5060009081526003602081815260409283902083516080810185528154815260018201549281019290925260028101546001600160a01b039081169483019490945290910154909116606082015290565b6000808260e001518361010001516127106113659190613354565b61136f9190613354565b61137f90655af3107a400061338c565b836060015161138e91906133ab565b670de0b6b3a76400008460a001516113a6919061338c565b8460c0015185606001516113ba919061338c565b6113c491906133ab565b6113ce919061336c565b90508260400151670de0b6b3a76400008460800151670de0b6b3a7640000846113f7919061338c565b611401919061336c565b61140b919061338c565b611415919061336c565b9392505050565b80516020808301516040840151805191929091600091829182916114469186018101908601612643565b9250925092506000826001600160a01b03166370a08231306040518263ffffffff1660e01b815260040161147a9190612c57565b60206040518083038186803b15801561149257600080fd5b505afa1580156114a6573d6000803e3d6000fd5b505050506040513d601f19601f820116820180604052508101906114ca9190612ace565b90506114d7848484611bd4565b600081846001600160a01b03166370a08231306040518263ffffffff1660e01b81526004016115069190612c57565b60206040518083038186803b15801561151e57600080fd5b505afa158015611532573d6000803e3d6000fd5b505050506040513d601f19601f820116820180604052508101906115569190612ace565b61156091906133ab565b90506115728860600151858984611b8f565b5050600061271060015483611587919061338c565b611591919061336c565b90506000896115a08385613354565b6115aa9190613354565b90506115bc8860400151883084611a09565b6115e7857f000000000000000000000000000000000000000000000000000000000000000084611e7e565b610bba8589604001518c866115fc9190613354565b611ed4565b3390565b6000610c3e8383611eeb565b6000610c3e8383611f03565b60008060008060007f00000000000000000000000000000000000000000000000000000000000000006001600160a01b0316635ec88c79876040518263ffffffff1660e01b81526004016116719190612c57565b60606040518083038186803b15801561168957600080fd5b505afa15801561169d573d6000803e3d6000fd5b505050506040513d601f19601f820116820180604052508101906116c19190612b86565b5091505060007f00000000000000000000000000000000000000000000000000000000000000006001600160a01b031663abfceffc886040518263ffffffff1660e01b81526004016117139190612c57565b60006040518083038186803b15801561172b57600080fd5b505afa15801561173f573d6000803e3d6000fd5b505050506040513d6000823e601f3d908101601f1916820160405261176791908101906127f0565b9050611771612020565b815190935060005b818110156118a05760008382815181106117a357634e487b7160e01b600052603260045260246000fd5b60200260200101516001600160a01b03166395dd91938b6040518263ffffffff1660e01b81526004016117d69190612c57565b60206040518083038186803b1580156117ee57600080fd5b505afa158015611802573d6000803e3d6000fd5b505050506040513d601f19601f820116820180604052508101906118269190612ace565b9050801561188d57600061186085848151811061185357634e487b7160e01b600052603260045260246000fd5b60200260200101516118e1565b9050670de0b6b3a7640000611875828461338c565b61187f919061336c565b611889908a613354565b9850505b5080611898816133ee565b915050611779565b50670de0b6b3a764000090506118b6848461338c565b6118c0919061336c565b6118ca9086613354565b95506118d686866120f3565b935050509193509193565b60405163fc57d4df60e01b81526000906001600160a01b037f0000000000000000000000000000000000000000000000000000000000000000169063fc57d4df90611930908590600401612c57565b60206040518083038186803b15801561194857600080fd5b505afa15801561195c573d6000803e3d6000fd5b505050506040513d601f19601f8201168201806040525081019061069c9190612ace565b836001600160a01b031663e0232b42848487856040516020016119a4929190612cfb565b6040516020818303038152906040526040518463ffffffff1660e01b81526004016119d193929190612d67565b600060405180830381600087803b1580156119eb57600080fd5b505af11580156119ff573d6000803e3d6000fd5b5050505050505050565b611aa1848484876001600160a01b031663182df0f56040518163ffffffff1660e01b815260040160206040518083038186803b158015611a4857600080fd5b505afa158015611a5c573d6000803e3d6000fd5b505050506040513d601f19601f82011682018060405250810190611a809190612ace565b611a92670de0b6b3a76400008761338c565b611a9c919061336c565b61211f565b60405163852a12e360e01b81526001600160a01b0385169063852a12e390611acd908490600401612de9565b602060405180830381600087803b158015611ae757600080fd5b505af1158015611afb573d6000803e3d6000fd5b505050506040513d601f19601f82011682018060405250810190611b1f9190612ace565b5050505050565b6000610c3e8383612140565b600061069c82612178565b600480546001600160a01b038381166001600160a01b0319831681179093556040519116919082907f8be0079c531659141344cd1fd0a4f28419497f9722a3daafe3b4186f6b6457e090600090a35050565b611b9a838583611ed4565b6040516304c11f0360e31b81526001600160a01b03851690632608f81890611acd9085908590600401612d4e565b6000610c3e838361217c565b60606000611be442610384613354565b905060007f00000000000000000000000000000000000000000000000000000000000000006001600160a01b031663ad5c46486040518163ffffffff1660e01b815260040160206040518083038186803b158015611c4157600080fd5b505afa158015611c55573d6000803e3d6000fd5b505050506040513d601f19601f82011682018060405250810190611c799190612627565b9050806001600160a01b0316856001600160a01b03161415611c9a57611e76565b806001600160a01b0316866001600160a01b03161415611cb957611e76565b6040805160038082526080820190925290602082016060803683370190505092508583600081518110611cfc57634e487b7160e01b600052603260045260246000fd5b60200260200101906001600160a01b031690816001600160a01b0316815250508083600181518110611d3e57634e487b7160e01b600052603260045260246000fd5b60200260200101906001600160a01b031690816001600160a01b0316815250508483600281518110611d8057634e487b7160e01b600052603260045260246000fd5b60200260200101906001600160a01b031690816001600160a01b031681525050611dcb867f000000000000000000000000000000000000000000000000000000000000000086611ed4565b6040516338ed173960e01b81526001600160a01b037f000000000000000000000000000000000000000000000000000000000000000016906338ed173990611e20908790600190889030908990600401613258565b600060405180830381600087803b158015611e3a57600080fd5b505af1158015611e4e573d6000803e3d6000fd5b505050506040513d6000823e601f3d908101601f19168201604052610709919081019061288e565b505050505050565b6112578363a9059cbb60e01b8484604051602401611e9d929190612d4e565b60408051601f198184030181529190526020810180516001600160e01b03166001600160e01b0319909316929092179091526121c6565b611ee083836000612255565b611257838383612255565b60009081526001919091016020526040902054151590565b60008181526001830160205260408120548015612016576000611f276001836133ab565b8554909150600090611f3b906001906133ab565b9050818114611fbc576000866000018281548110611f6957634e487b7160e01b600052603260045260246000fd5b9060005260206000200154905080876000018481548110611f9a57634e487b7160e01b600052603260045260246000fd5b6000918252602080832090910192909255918252600188019052604090208390555b8554869080611fdb57634e487b7160e01b600052603160045260246000fd5b600190038181906000526020600020016000905590558560010160008681526020019081526020016000206000905560019350505050610c41565b6000915050610c41565b600064e8d4a510007f00000000000000000000000000000000000000000000000000000000000000006001600160a01b031663fc57d4df7f00000000000000000000000000000000000000000000000000000000000000006040518263ffffffff1660e01b81526004016120949190612c57565b60206040518083038186803b1580156120ac57600080fd5b505afa1580156120c0573d6000803e3d6000fd5b505050506040513d601f19601f820116820180604052508101906120e49190612ace565b6120ee919061336c565b905090565b60008161210257506000610c41565b81612115670de0b6b3a76400008561338c565b610c3e919061336c565b610bd2846323b872dd60e01b858585604051602401611e9d93929190612c85565b600082600001828154811061216557634e487b7160e01b600052603260045260246000fd5b9060005260206000200154905092915050565b5490565b60006121888383611eeb565b6121be57508154600181810184556000848152602080822090930184905584548482528286019093526040902091909155610c41565b506000610c41565b600061221b826040518060400160405280602081526020017f5361666545524332303a206c6f772d6c6576656c2063616c6c206661696c6564815250856001600160a01b03166123189092919063ffffffff16565b80519091501561125757808060200190518101906122399190612912565b6112575760405162461bcd60e51b81526004016106f690613173565b8015806122dd5750604051636eb1769f60e11b81526001600160a01b0384169063dd62ed3e9061228b9030908690600401612c6b565b60206040518083038186803b1580156122a357600080fd5b505afa1580156122b7573d6000803e3d6000fd5b505050506040513d601f19601f820116820180604052508101906122db9190612ace565b155b6122f95760405162461bcd60e51b81526004016106f6906131bd565b6112578363095ea7b360e01b8484604051602401611e9d929190612d4e565b6060612327848460008561232f565b949350505050565b6060824710156123515760405162461bcd60e51b81526004016106f690612f55565b61235a856123ef565b6123765760405162461bcd60e51b81526004016106f69061313c565b600080866001600160a01b031685876040516123929190612c3b565b60006040518083038185875af1925050503d80600081146123cf576040519150601f19603f3d011682016040523d82523d6000602084013e6123d4565b606091505b50915091506123e48282866123f5565b979650505050505050565b3b151590565b60608315612404575081611415565b8251156124145782518084602001fd5b8160405162461bcd60e51b81526004016106f69190612df2565b6040518060800160405280600081526020016000815260200160006001600160a01b0316815260200160006001600160a01b031681525090565b803561069f81613435565b60008083601f840112612484578182fd5b50813567ffffffffffffffff81111561249b578182fd5b6020830191508360208285010111156124b357600080fd5b9250929050565b600082601f8301126124ca578081fd5b813567ffffffffffffffff8111156124e4576124e461341f565b6124f7601f8201601f1916602001613306565b81815284602083860101111561250b578283fd5b816020850160208301379081016020019190915292915050565b600081830360c0811215612537578182fd5b6040516060810167ffffffffffffffff828210818311171561255b5761255b61341f565b81604052829450608084121561257057600080fd5b60e083019350818410818511171561258a5761258a61341f565b836040528535825260208601356080840152604086013593506125ac84613435565b8360a0840152606086013593506125c284613435565b8360c08401528183526125d760808701612468565b602084015260a08601359350808411156125f057600080fd5b50506125fe858386016124ba565b6040820152505092915050565b60006020828403121561261c578081fd5b813561141581613435565b600060208284031215612638578081fd5b815161141581613435565b600080600060608486031215612657578182fd5b835161266281613435565b602085015190935061267381613435565b80925050604084015190509250925092565b60008060408385031215612697578182fd5b82356126a281613435565b9150602083013567ffffffffffffffff8111156126bd578182fd5b6126c985828601612525565b9150509250929050565b600080604083850312156126e5578182fd5b82356126f081613435565b9150602083013561270081613435565b809150509250929050565b60008060006060848603121561271f578081fd5b833561272a81613435565b9250602084013561273a81613435565b929592945050506040919091013590565b60008060008060008060a08789031215612763578384fd5b863561276e81613435565b9550602087013561277e81613435565b94506040870135935060608701359250608087013567ffffffffffffffff8111156127a7578283fd5b6127b389828a01612473565b979a9699509497509295939492505050565b600080604083850312156127d7578182fd5b82356127e281613435565b946020939093013593505050565b60006020808385031215612802578182fd5b825167ffffffffffffffff811115612818578283fd5b8301601f81018513612828578283fd5b805161283b61283682613330565b613306565b8181528381019083850185840285018601891015612857578687fd5b8694505b8385101561288257805161286e81613435565b83526001949094019391850191850161285b565b50979650505050505050565b600060208083850312156128a0578182fd5b825167ffffffffffffffff8111156128b6578283fd5b8301601f810185136128c6578283fd5b80516128d461283682613330565b81815283810190838501858402850186018910156128f0578687fd5b8694505b838510156128825780518352600194909401939185019185016128f4565b600060208284031215612923578081fd5b81516114158161344a565b600080600060608486031215612942578081fd5b835161294d8161344a565b6020850151604086015191945092506129658161344a565b809150509250925092565b600060208284031215612981578081fd5b5035919050565b6000806000806080858703121561299d578182fd5b84356129a881613435565b935060208501356129b881613435565b925060408501356129c881613435565b9396929550929360600135925050565b600080600080608085870312156129ed578182fd5b84356129f881613435565b93506020850135612a0881613435565b925060408501359150606085013567ffffffffffffffff811115612a2a578182fd5b612a3687828801612525565b91505092959194509250565b6000610120808385031215612a55578182fd5b612a5e81613306565b9050612a6983612468565b8152612a7760208401612468565b602082015260408301356040820152606083013560608201526080830135608082015260a083013560a082015260c083013560c082015260e083013560e08201526101008084013581830152508091505092915050565b600060208284031215612adf578081fd5b5051919050565b60008060008060008060008060e0898b031215612b01578586fd5b88359750602089013596506040890135612b1a81613435565b95506060890135612b2a81613435565b94506080890135612b3a81613435565b935060a089013567ffffffffffffffff811115612b55578283fd5b612b618b828c01612473565b90945092505060c0890135612b758161344a565b809150509295985092959890939650565b600080600060608486031215612b9a578081fd5b8351925060208401519150604084015190509250925092565b60008284528282602086013780602084860101526020601f19601f85011685010190509392505050565b60008151808452612bf58160208601602086016133c2565b601f01601f19169290920160200192915050565b80518252602080820151908301526040808201516001600160a01b039081169184019190915260609182015116910152565b60008251612c4d8184602087016133c2565b9190910192915050565b6001600160a01b0391909116815260200190565b6001600160a01b0392831681529116602082015260400190565b6001600160a01b039384168152919092166020820152604081019190915260600190565b6001600160a01b0387811682526001600160e01b0319871660208301528516604082015260a060608201819052600090612ce69083018587612bb3565b90508215156080830152979650505050505050565b600060018060a01b03808516835260406020840152612d1e604084018551612c09565b8060208501511660c084015250604083015160c060e0840152612d45610100840182612bdd565b95945050505050565b6001600160a01b03929092168252602082015260400190565b600060018060a01b038516825283602083015260606040830152612d456060830184612bdd565b6001600160a01b038881168252602082018890526040820187905285811660608301528416608082015260c060a08201819052600090612dd19083018486612bb3565b9998505050505050505050565b901515815260200190565b90815260200190565b600060208252610c3e6020830184612bdd565b602080825260149082015273636f6c6c61746572616c2d646562742d73616d6560601b604082015260600190565b60208082526026908201527f4f776e61626c653a206e6577206f776e657220697320746865207a65726f206160408201526564647265737360d01b606082015260800190565b6020808252601a908201527f616c72656164792d737461727465642d70726f74656374696f6e000000000000604082015260600190565b60208082526017908201527f506f6b654d6552656164793a206f6e6c79506f6b654d65000000000000000000604082015260600190565b6020808252601b908201527f616d6f756e742d746f2d666c6173682d626f72726f772d7a65726f0000000000604082015260600190565b6020808252601b908201527f696e76616c69642d6865616c74682d666163746f722d696e7075740000000000604082015260600190565b60208082526026908201527f416464726573733a20696e73756666696369656e742062616c616e636520666f6040820152651c8818d85b1b60d21b606082015260800190565b6020808252601690820152751919589d0b5d1bdad95b8b5b9bdd0b585b1b1bddd95960521b604082015260600190565b60208082526021908201527f6865616c74682d666163746f722d6e6f742d756e6465722d7468726573686f6c6040820152601960fa1b606082015260800190565b60208082526019908201527f6865616c74682d666163746f722d737461792d756e7361666500000000000000604082015260600190565b6020808252601e908201527f666c6173686c6f616e2d63616c6c6261636b2d6f6e6c792d63546f6b656e0000604082015260600190565b602080825260169082015275636f6c6c61746572616c2d666163746f722d7a65726f60501b604082015260600190565b6020808252818101527f4f776e61626c653a2063616c6c6572206973206e6f7420746865206f776e6572604082015260600190565b6020808252601490820152731c1c9bdd1958dd1a5bdb8b5b9bdd0b599bdd5b9960621b604082015260600190565b602080825260159082015274636f6c6c61746572616c2d70726963652d7a65726f60581b604082015260600190565b6020808252601d908201527f416464726573733a2063616c6c20746f206e6f6e2d636f6e7472616374000000604082015260600190565b6020808252602a908201527f5361666545524332303a204552433230206f7065726174696f6e20646964206e6040820152691bdd081cdd58d8d9595960b21b606082015260800190565b60208082526036908201527f5361666545524332303a20617070726f76652066726f6d206e6f6e2d7a65726f60408201527520746f206e6f6e2d7a65726f20616c6c6f77616e636560501b606082015260800190565b6020808252601c908201527f636f6c6c61746572616c2d746f6b656e2d6e6f742d616c6c6f77656400000000604082015260600190565b60808101610c418284612c09565b600060a082018783526020878185015260a0604085015281875180845260c0860191508289019350845b818110156132a75784516001600160a01b031683529383019391830191600101613282565b50506001600160a01b03969096166060850152505050608001529392505050565b93845260208401929092526040830152606082015260800190565b948552602085019390935260408401919091526060830152608082015260a00190565b60405181810167ffffffffffffffff811182821017156133285761332861341f565b604052919050565b600067ffffffffffffffff82111561334a5761334a61341f565b5060209081020190565b6000821982111561336757613367613409565b500190565b60008261338757634e487b7160e01b81526012600452602481fd5b500490565b60008160001904831182151516156133a6576133a6613409565b500290565b6000828210156133bd576133bd613409565b500390565b60005b838110156133dd5781810151838201526020016133c5565b83811115610bd25750506000910152565b600060001982141561340257613402613409565b5060010190565b634e487b7160e01b600052601160045260246000fd5b634e487b7160e01b600052604160045260246000fd5b6001600160a01b03811681146112ee57600080fd5b80151581146112ee57600080fdfea2646970667358221220a9594bbc2adcd1c4b20df41210156102ae2b165c779dfb93520f8e485126517264736f6c63430008000033",
  "linkReferences": {},
  "deployedLinkReferences": {}
}