{
  "_format": "hh-sol-artifact-1",
  "contractName": "CreamAccountDataProviderTest",
  "sourceName": "contracts/test/CreamAccountProviderTest.sol",
  "abi": [
    {
      "inputs": [
        {
          "internalType": "address",
          "name": "_cusdcAddress",
          "type": "address"
        },
        {
          "internalType": "contract IComptroller",
          "name": "_comptroller",
          "type": "address"
        },
        {
          "internalType": "contract IPriceOracle",
          "name": "_oracle",
          "type": "address"
        }
      ],
      "stateMutability": "nonpayable",
      "type": "constructor"
    },
    {
      "inputs": [],
      "name": "CUSDC_ADDRESS",
      "outputs": [
        {
          "internalType": "address",
          "name": "",
          "type": "address"
        }
      ],
      "stateMutability": "view",
      "type": "function"
    },
    {
      "inputs": [],
      "name": "EXP_SCALE",
      "outputs": [
        {
          "internalType": "uint256",
          "name": "",
          "type": "uint256"
        }
      ],
      "stateMutability": "view",
      "type": "function"
    },
    {
      "inputs": [
        {
          "internalType": "uint256",
          "name": "totalCollateral",
          "type": "uint256"
        },
        {
          "internalType": "uint256",
          "name": "totalBorrow",
          "type": "uint256"
        }
      ],
      "name": "calculateHealthFactor",
      "outputs": [
        {
          "internalType": "uint256",
          "name": "price",
          "type": "uint256"
        }
      ],
      "stateMutability": "pure",
      "type": "function"
    },
    {
      "inputs": [],
      "name": "comptroller",
      "outputs": [
        {
          "internalType": "contract IComptroller",
          "name": "",
          "type": "address"
        }
      ],
      "stateMutability": "view",
      "type": "function"
    },
    {
      "inputs": [
        {
          "internalType": "contract CTokenInterface",
          "name": "cToken",
          "type": "address"
        }
      ],
      "name": "getUnderlyingPrice",
      "outputs": [
        {
          "internalType": "uint256",
          "name": "price",
          "type": "uint256"
        }
      ],
      "stateMutability": "view",
      "type": "function"
    },
    {
      "inputs": [],
      "name": "getUsdcEthPrice",
      "outputs": [
        {
          "internalType": "uint256",
          "name": "price",
          "type": "uint256"
        }
      ],
      "stateMutability": "view",
      "type": "function"
    },
    {
      "inputs": [
        {
          "internalType": "address",
          "name": "account",
          "type": "address"
        }
      ],
      "name": "getUserAccountData",
      "outputs": [
        {
          "internalType": "uint256",
          "name": "totalCollateralInEth",
          "type": "uint256"
        },
        {
          "internalType": "uint256",
          "name": "totalBorrowInEth",
          "type": "uint256"
        },
        {
          "internalType": "uint256",
          "name": "healthFactor",
          "type": "uint256"
        },
        {
          "internalType": "uint256",
          "name": "ethPerUsd",
          "type": "uint256"
        }
      ],
      "stateMutability": "view",
      "type": "function"
    },
    {
      "inputs": [
        {
          "internalType": "address",
          "name": "asset",
          "type": "address"
        },
        {
          "internalType": "address",
          "name": "account",
          "type": "address"
        }
      ],
      "name": "getUserReserveData",
      "outputs": [
        {
          "internalType": "uint256",
          "name": "balanceUnderlying",
          "type": "uint256"
        },
        {
          "internalType": "uint256",
          "name": "debtUnderlying",
          "type": "uint256"
        },
        {
          "internalType": "uint256",
          "name": "exchangeRateStored",
          "type": "uint256"
        },
        {
          "internalType": "uint256",
          "name": "borrowRatePerBlock",
          "type": "uint256"
        },
        {
          "internalType": "uint256",
          "name": "supplyRatePerBlock",
          "type": "uint256"
        }
      ],
      "stateMutability": "view",
      "type": "function"
    },
    {
      "inputs": [
        {
          "internalType": "address",
          "name": "account",
          "type": "address"
        }
      ],
      "name": "isUnderThresholdHealthFactor",
      "outputs": [
        {
          "internalType": "bool",
          "name": "",
          "type": "bool"
        }
      ],
      "stateMutability": "view",
      "type": "function"
    },
    {
      "inputs": [],
      "name": "oracle",
      "outputs": [
        {
          "internalType": "contract IPriceOracle",
          "name": "",
          "type": "address"
        }
      ],
      "stateMutability": "view",
      "type": "function"
    }
  ],
  "bytecode": "0x60e060405234801561001057600080fd5b50604051610d0c380380610d0c83398101604081905261002f91610056565b6001600160601b0319606092831b811660805290821b811660a05291901b1660c0526100ba565b60008060006060848603121561006a578283fd5b8351610075816100a2565b6020850151909350610086816100a2565b6040850151909250610097816100a2565b809150509250925092565b6001600160a01b03811681146100b757600080fd5b50565b60805160601c60a05160601c60c05160601c610bf761011560003960008181610423015261052001526000818161044d015281816104f101526108930152600081816103ff015281816105bf01526106610152610bf76000f3fe608060405234801561001057600080fd5b506004361061009e5760003560e01c80637dc0d1d0116100665780637dc0d1d01461012d5780637f546c7b14610135578063bbba205d1461013d578063bf92857c14610145578063fc57d4df146101685761009e565b806301f72884146100a357806328dd2d01146100cc5780635fe3b567146100f057806366408eb01461010557806368d1c22d1461010d575b600080fd5b6100b66100b1366004610a57565b61017b565b6040516100c39190610ac4565b60405180910390f35b6100df6100da366004610946565b610190565b6040516100c3959493929190610ae8565b6100f86103fd565b6040516100c39190610aa5565b6100f8610421565b61012061011b366004610923565b610445565b6040516100c39190610ab9565b6100f861044b565b6100b661046f565b6100b661047e565b610158610153366004610923565b61048a565b6040516100c39493929190610acd565b6100b6610176366004610923565b6104a8565b600061018783836104bb565b90505b92915050565b600080600080600080879050806001600160a01b0316633af9e669886040518263ffffffff1660e01b81526004016101c89190610aa5565b60206040518083038186803b1580156101e057600080fd5b505afa1580156101f4573d6000803e3d6000fd5b505050506040513d601f19601f820116820180604052508101906102189190610a3f565b6040516395dd919360e01b81529096506001600160a01b038216906395dd919390610247908a90600401610aa5565b60206040518083038186803b15801561025f57600080fd5b505afa158015610273573d6000803e3d6000fd5b505050506040513d601f19601f820116820180604052508101906102979190610a3f565b9450806001600160a01b031663182df0f56040518163ffffffff1660e01b815260040160206040518083038186803b1580156102d257600080fd5b505afa1580156102e6573d6000803e3d6000fd5b505050506040513d601f19601f8201168201806040525081019061030a9190610a3f565b9350806001600160a01b031663f8f9da286040518163ffffffff1660e01b815260040160206040518083038186803b15801561034557600080fd5b505afa158015610359573d6000803e3d6000fd5b505050506040513d601f19601f8201168201806040525081019061037d9190610a3f565b9250806001600160a01b031663ae9d70b06040518163ffffffff1660e01b815260040160206040518083038186803b1580156103b857600080fd5b505afa1580156103cc573d6000803e3d6000fd5b505050506040513d601f19601f820116820180604052508101906103f09190610a3f565b9150509295509295909350565b7f000000000000000000000000000000000000000000000000000000000000000081565b7f000000000000000000000000000000000000000000000000000000000000000081565b50600090565b7f000000000000000000000000000000000000000000000000000000000000000081565b60006104796104e7565b905090565b670de0b6b3a764000081565b600080600080610499856105b5565b93509350935093509193509193565b60006104b382610879565b90505b919050565b6000816104ca5750600061018a565b816104dd670de0b6b3a764000085610b43565b6101879190610b23565b600064e8d4a510007f00000000000000000000000000000000000000000000000000000000000000006001600160a01b031663fc57d4df7f00000000000000000000000000000000000000000000000000000000000000006040518263ffffffff1660e01b815260040161055b9190610aa5565b60206040518083038186803b15801561057357600080fd5b505afa158015610587573d6000803e3d6000fd5b505050506040513d601f19601f820116820180604052508101906105ab9190610a3f565b6104799190610b23565b60008060008060007f00000000000000000000000000000000000000000000000000000000000000006001600160a01b0316635ec88c79876040518263ffffffff1660e01b81526004016106099190610aa5565b60606040518083038186803b15801561062157600080fd5b505afa158015610635573d6000803e3d6000fd5b505050506040513d601f19601f820116820180604052508101906106599190610a78565b5091505060007f00000000000000000000000000000000000000000000000000000000000000006001600160a01b031663abfceffc886040518263ffffffff1660e01b81526004016106ab9190610aa5565b60006040518083038186803b1580156106c357600080fd5b505afa1580156106d7573d6000803e3d6000fd5b505050506040513d6000823e601f3d908101601f191682016040526106ff919081019061097e565b90506107096104e7565b815190935060005b8181101561083857600083828151811061073b57634e487b7160e01b600052603260045260246000fd5b60200260200101516001600160a01b03166395dd91938b6040518263ffffffff1660e01b815260040161076e9190610aa5565b60206040518083038186803b15801561078657600080fd5b505afa15801561079a573d6000803e3d6000fd5b505050506040513d601f19601f820116820180604052508101906107be9190610a3f565b905080156108255760006107f88584815181106107eb57634e487b7160e01b600052603260045260246000fd5b6020026020010151610879565b9050670de0b6b3a764000061080d8284610b43565b6108179190610b23565b610821908a610b0b565b9850505b508061083081610b62565b915050610711565b50670de0b6b3a7640000905061084e8484610b43565b6108589190610b23565b6108629086610b0b565b955061086e86866104bb565b935050509193509193565b60405163fc57d4df60e01b81526000906001600160a01b037f0000000000000000000000000000000000000000000000000000000000000000169063fc57d4df906108c8908590600401610aa5565b60206040518083038186803b1580156108e057600080fd5b505afa1580156108f4573d6000803e3d6000fd5b505050506040513d601f19601f820116820180604052508101906104b39190610a3f565b80516104b681610ba9565b600060208284031215610934578081fd5b813561093f81610ba9565b9392505050565b60008060408385031215610958578081fd5b823561096381610ba9565b9150602083013561097381610ba9565b809150509250929050565b60006020808385031215610990578182fd5b825167ffffffffffffffff808211156109a7578384fd5b818501915085601f8301126109ba578384fd5b8151818111156109cc576109cc610b93565b838102604051858282010181811085821117156109eb576109eb610b93565b604052828152858101935084860182860187018a1015610a09578788fd5b8795505b83861015610a3257610a1e81610918565b855260019590950194938601938601610a0d565b5098975050505050505050565b600060208284031215610a50578081fd5b5051919050565b60008060408385031215610a69578182fd5b50508035926020909101359150565b600080600060608486031215610a8c578081fd5b8351925060208401519150604084015190509250925092565b6001600160a01b0391909116815260200190565b901515815260200190565b90815260200190565b93845260208401929092526040830152606082015260800190565b948552602085019390935260408401919091526060830152608082015260a00190565b60008219821115610b1e57610b1e610b7d565b500190565b600082610b3e57634e487b7160e01b81526012600452602481fd5b500490565b6000816000190483118215151615610b5d57610b5d610b7d565b500290565b6000600019821415610b7657610b76610b7d565b5060010190565b634e487b7160e01b600052601160045260246000fd5b634e487b7160e01b600052604160045260246000fd5b6001600160a01b0381168114610bbe57600080fd5b5056fea264697066735822122098a8a35df2a29f4a515a66aa8e57cbe2341baf4aae06266d69908107bf7df5af64736f6c63430008000033",
  "linkReferences": {},
  "deployedLinkReferences": {}
}